{
  "_format": "hh3-artifact-1",
  "contractName": "L1WarpToad",
  "sourceName": "contracts/evm/warptoad/L1WarpToad.sol",
  "abi": [
    {
      "inputs": [
        {
          "internalType": "uint8",
          "name": "_maxTreeDepth",
          "type": "uint8"
        },
        {
          "internalType": "address",
          "name": "_withdrawVerifier",
          "type": "address"
        },
        {
          "internalType": "address",
          "name": "_nativeToken",
          "type": "address"
        },
        {
          "internalType": "string",
          "name": "name",
          "type": "string"
        },
        {
          "internalType": "string",
          "name": "symbol",
          "type": "string"
        }
      ],
      "stateMutability": "nonpayable",
      "type": "constructor"
    },
    {
      "inputs": [
        {
          "internalType": "address",
          "name": "spender",
          "type": "address"
        },
        {
          "internalType": "uint256",
          "name": "allowance",
          "type": "uint256"
        },
        {
          "internalType": "uint256",
          "name": "needed",
          "type": "uint256"
        }
      ],
      "name": "ERC20InsufficientAllowance",
      "type": "error"
    },
    {
      "inputs": [
        {
          "internalType": "address",
          "name": "sender",
          "type": "address"
        },
        {
          "internalType": "uint256",
          "name": "balance",
          "type": "uint256"
        },
        {
          "internalType": "uint256",
          "name": "needed",
          "type": "uint256"
        }
      ],
      "name": "ERC20InsufficientBalance",
      "type": "error"
    },
    {
      "inputs": [
        {
          "internalType": "address",
          "name": "approver",
          "type": "address"
        }
      ],
      "name": "ERC20InvalidApprover",
      "type": "error"
    },
    {
      "inputs": [
        {
          "internalType": "address",
          "name": "receiver",
          "type": "address"
        }
      ],
      "name": "ERC20InvalidReceiver",
      "type": "error"
    },
    {
      "inputs": [
        {
          "internalType": "address",
          "name": "sender",
          "type": "address"
        }
      ],
      "name": "ERC20InvalidSender",
      "type": "error"
    },
    {
      "inputs": [
        {
          "internalType": "address",
          "name": "spender",
          "type": "address"
        }
      ],
      "name": "ERC20InvalidSpender",
      "type": "error"
    },
    {
      "anonymous": false,
      "inputs": [
        {
          "indexed": true,
          "internalType": "address",
          "name": "owner",
          "type": "address"
        },
        {
          "indexed": true,
          "internalType": "address",
          "name": "spender",
          "type": "address"
        },
        {
          "indexed": false,
          "internalType": "uint256",
          "name": "value",
          "type": "uint256"
        }
      ],
      "name": "Approval",
      "type": "event"
    },
    {
      "anonymous": false,
      "inputs": [
        {
          "indexed": true,
          "internalType": "uint256",
          "name": "commitment",
          "type": "uint256"
        },
        {
          "indexed": false,
          "internalType": "uint256",
          "name": "amount",
          "type": "uint256"
        },
        {
          "indexed": false,
          "internalType": "uint256",
          "name": "index",
          "type": "uint256"
        }
      ],
      "name": "Burn",
      "type": "event"
    },
    {
      "anonymous": false,
      "inputs": [
        {
          "indexed": true,
          "internalType": "address",
          "name": "from",
          "type": "address"
        },
        {
          "indexed": true,
          "internalType": "address",
          "name": "to",
          "type": "address"
        },
        {
          "indexed": false,
          "internalType": "uint256",
          "name": "value",
          "type": "uint256"
        }
      ],
      "name": "Transfer",
      "type": "event"
    },
    {
      "inputs": [
        {
          "internalType": "uint256",
          "name": "_nullifier",
          "type": "uint256"
        },
        {
          "internalType": "uint256",
          "name": "_chainId",
          "type": "uint256"
        },
        {
          "internalType": "uint256",
          "name": "_amount",
          "type": "uint256"
        },
        {
          "internalType": "uint256",
          "name": "_gigaRoot",
          "type": "uint256"
        },
        {
          "internalType": "uint256",
          "name": "_localRoot",
          "type": "uint256"
        },
        {
          "internalType": "uint256",
          "name": "_feeFactor",
          "type": "uint256"
        },
        {
          "internalType": "uint256",
          "name": "_priorityFee",
          "type": "uint256"
        },
        {
          "internalType": "uint256",
          "name": "_maxFee",
          "type": "uint256"
        },
        {
          "internalType": "address",
          "name": "_relayer",
          "type": "address"
        },
        {
          "internalType": "address",
          "name": "_recipient",
          "type": "address"
        }
      ],
      "name": "_formatPublicInputs",
      "outputs": [
        {
          "internalType": "bytes32[]",
          "name": "",
          "type": "bytes32[]"
        }
      ],
      "stateMutability": "pure",
      "type": "function"
    },
    {
      "inputs": [
        {
          "internalType": "address",
          "name": "owner",
          "type": "address"
        },
        {
          "internalType": "address",
          "name": "spender",
          "type": "address"
        }
      ],
      "name": "allowance",
      "outputs": [
        {
          "internalType": "uint256",
          "name": "",
          "type": "uint256"
        }
      ],
      "stateMutability": "view",
      "type": "function"
    },
    {
      "inputs": [
        {
          "internalType": "address",
          "name": "spender",
          "type": "address"
        },
        {
          "internalType": "uint256",
          "name": "value",
          "type": "uint256"
        }
      ],
      "name": "approve",
      "outputs": [
        {
          "internalType": "bool",
          "name": "",
          "type": "bool"
        }
      ],
      "stateMutability": "nonpayable",
      "type": "function"
    },
    {
      "inputs": [
        {
          "internalType": "address",
          "name": "account",
          "type": "address"
        }
      ],
      "name": "balanceOf",
      "outputs": [
        {
          "internalType": "uint256",
          "name": "",
          "type": "uint256"
        }
      ],
      "stateMutability": "view",
      "type": "function"
    },
    {
      "inputs": [
        {
          "internalType": "uint256",
          "name": "_preCommitment",
          "type": "uint256"
        },
        {
          "internalType": "uint256",
          "name": "_amount",
          "type": "uint256"
        }
      ],
      "name": "burn",
      "outputs": [],
      "stateMutability": "nonpayable",
      "type": "function"
    },
    {
      "inputs": [],
      "name": "cachedLocalRoot",
      "outputs": [
        {
          "internalType": "uint256",
          "name": "",
          "type": "uint256"
        }
      ],
      "stateMutability": "view",
      "type": "function"
    },
    {
      "inputs": [],
      "name": "commitTreeData",
      "outputs": [
        {
          "internalType": "uint40",
          "name": "maxIndex",
          "type": "uint40"
        },
        {
          "internalType": "uint40",
          "name": "numberOfLeaves",
          "type": "uint40"
        }
      ],
      "stateMutability": "view",
      "type": "function"
    },
    {
      "inputs": [],
      "name": "decimals",
      "outputs": [
        {
          "internalType": "uint8",
          "name": "",
          "type": "uint8"
        }
      ],
      "stateMutability": "view",
      "type": "function"
    },
    {
      "inputs": [
        {
          "internalType": "uint256",
          "name": "_amount",
          "type": "uint256"
        }
      ],
      "name": "getFreeShit",
      "outputs": [],
      "stateMutability": "nonpayable",
      "type": "function"
    },
    {
      "inputs": [],
      "name": "getLocalRootAndBlock",
      "outputs": [
        {
          "internalType": "uint256",
          "name": "",
          "type": "uint256"
        },
        {
          "internalType": "uint256",
          "name": "",
          "type": "uint256"
        }
      ],
      "stateMutability": "nonpayable",
      "type": "function"
    },
    {
      "inputs": [],
      "name": "gigaRoot",
      "outputs": [
        {
          "internalType": "uint256",
          "name": "",
          "type": "uint256"
        }
      ],
      "stateMutability": "view",
      "type": "function"
    },
    {
      "inputs": [
        {
          "internalType": "uint256",
          "name": "",
          "type": "uint256"
        }
      ],
      "name": "gigaRootHistory",
      "outputs": [
        {
          "internalType": "bool",
          "name": "",
          "type": "bool"
        }
      ],
      "stateMutability": "view",
      "type": "function"
    },
    {
      "inputs": [],
      "name": "gigaRootProvider",
      "outputs": [
        {
          "internalType": "address",
          "name": "",
          "type": "address"
        }
      ],
      "stateMutability": "view",
      "type": "function"
    },
    {
      "inputs": [
        {
          "internalType": "address",
          "name": "_gigaRootProvider",
          "type": "address"
        },
        {
          "internalType": "address",
          "name": "_l1BridgeAdapter",
          "type": "address"
        }
      ],
      "name": "initialize",
      "outputs": [],
      "stateMutability": "nonpayable",
      "type": "function"
    },
    {
      "inputs": [
        {
          "internalType": "uint256",
          "name": "_gigaRoot",
          "type": "uint256"
        }
      ],
      "name": "isValidGigaRoot",
      "outputs": [
        {
          "internalType": "bool",
          "name": "",
          "type": "bool"
        }
      ],
      "stateMutability": "view",
      "type": "function"
    },
    {
      "inputs": [
        {
          "internalType": "uint256",
          "name": "_localRoot",
          "type": "uint256"
        }
      ],
      "name": "isValidLocalRoot",
      "outputs": [
        {
          "internalType": "bool",
          "name": "",
          "type": "bool"
        }
      ],
      "stateMutability": "view",
      "type": "function"
    },
    {
      "inputs": [],
      "name": "l1BridgeAdapter",
      "outputs": [
        {
          "internalType": "address",
          "name": "",
          "type": "address"
        }
      ],
      "stateMutability": "view",
      "type": "function"
    },
    {
      "inputs": [],
      "name": "lastLeafIndex",
      "outputs": [
        {
          "internalType": "uint256",
          "name": "",
          "type": "uint256"
        }
      ],
      "stateMutability": "view",
      "type": "function"
    },
    {
      "inputs": [],
      "name": "localRoot",
      "outputs": [
        {
          "internalType": "uint256",
          "name": "",
          "type": "uint256"
        }
      ],
      "stateMutability": "view",
      "type": "function"
    },
    {
      "inputs": [
        {
          "internalType": "uint256",
          "name": "",
          "type": "uint256"
        }
      ],
      "name": "localRootHistory",
      "outputs": [
        {
          "internalType": "bool",
          "name": "",
          "type": "bool"
        }
      ],
      "stateMutability": "view",
      "type": "function"
    },
    {
      "inputs": [],
      "name": "maxTreeDepth",
      "outputs": [
        {
          "internalType": "uint8",
          "name": "",
          "type": "uint8"
        }
      ],
      "stateMutability": "view",
      "type": "function"
    },
    {
      "inputs": [
        {
          "internalType": "uint256",
          "name": "_nullifier",
          "type": "uint256"
        },
        {
          "internalType": "uint256",
          "name": "_amount",
          "type": "uint256"
        },
        {
          "internalType": "uint256",
          "name": "_gigaRoot",
          "type": "uint256"
        },
        {
          "internalType": "uint256",
          "name": "_localRoot",
          "type": "uint256"
        },
        {
          "internalType": "uint256",
          "name": "_feeFactor",
          "type": "uint256"
        },
        {
          "internalType": "uint256",
          "name": "_priorityFee",
          "type": "uint256"
        },
        {
          "internalType": "uint256",
          "name": "_maxFee",
          "type": "uint256"
        },
        {
          "internalType": "address",
          "name": "_relayer",
          "type": "address"
        },
        {
          "internalType": "address",
          "name": "_recipient",
          "type": "address"
        },
        {
          "internalType": "bytes",
          "name": "_poof",
          "type": "bytes"
        }
      ],
      "name": "mint",
      "outputs": [],
      "stateMutability": "nonpayable",
      "type": "function"
    },
    {
      "inputs": [],
      "name": "name",
      "outputs": [
        {
          "internalType": "string",
          "name": "",
          "type": "string"
        }
      ],
      "stateMutability": "view",
      "type": "function"
    },
    {
      "inputs": [],
      "name": "nativeToken",
      "outputs": [
        {
          "internalType": "address",
          "name": "",
          "type": "address"
        }
      ],
      "stateMutability": "view",
      "type": "function"
    },
    {
      "inputs": [
        {
          "internalType": "uint256",
          "name": "_gigaRoot",
          "type": "uint256"
        }
      ],
      "name": "receiveGigaRoot",
      "outputs": [],
      "stateMutability": "payable",
      "type": "function"
    },
    {
      "inputs": [],
      "name": "storeLocalRootInHistory",
      "outputs": [
        {
          "internalType": "uint256",
          "name": "",
          "type": "uint256"
        }
      ],
      "stateMutability": "nonpayable",
      "type": "function"
    },
    {
      "inputs": [],
      "name": "symbol",
      "outputs": [
        {
          "internalType": "string",
          "name": "",
          "type": "string"
        }
      ],
      "stateMutability": "view",
      "type": "function"
    },
    {
      "inputs": [],
      "name": "totalSupply",
      "outputs": [
        {
          "internalType": "uint256",
          "name": "",
          "type": "uint256"
        }
      ],
      "stateMutability": "view",
      "type": "function"
    },
    {
      "inputs": [
        {
          "internalType": "address",
          "name": "to",
          "type": "address"
        },
        {
          "internalType": "uint256",
          "name": "value",
          "type": "uint256"
        }
      ],
      "name": "transfer",
      "outputs": [
        {
          "internalType": "bool",
          "name": "",
          "type": "bool"
        }
      ],
      "stateMutability": "nonpayable",
      "type": "function"
    },
    {
      "inputs": [
        {
          "internalType": "address",
          "name": "from",
          "type": "address"
        },
        {
          "internalType": "address",
          "name": "to",
          "type": "address"
        },
        {
          "internalType": "uint256",
          "name": "value",
          "type": "uint256"
        }
      ],
      "name": "transferFrom",
      "outputs": [
        {
          "internalType": "bool",
          "name": "",
          "type": "bool"
        }
      ],
      "stateMutability": "nonpayable",
      "type": "function"
    },
    {
      "inputs": [
        {
          "internalType": "uint256",
          "name": "_amount",
          "type": "uint256"
        }
      ],
      "name": "unwrap",
      "outputs": [],
      "stateMutability": "nonpayable",
      "type": "function"
    },
    {
      "inputs": [],
      "name": "withdrawVerifier",
      "outputs": [
        {
          "internalType": "address",
          "name": "",
          "type": "address"
        }
      ],
      "stateMutability": "view",
      "type": "function"
    },
    {
      "inputs": [
        {
          "internalType": "uint256",
          "name": "_amount",
          "type": "uint256"
        }
      ],
      "name": "wrap",
      "outputs": [],
      "stateMutability": "nonpayable",
      "type": "function"
    }
  ],
  "bytecode": "0x608060405234801561000f575f5ffd5b50604051611bc4380380611bc483398101604081905261002e9161028e565b8484848484600361003f83826103af565b50600461004c82826103af565b50506008805460ff191660ff8616908117909155600f80546001600160a01b0319166001600160a01b038616179055604051631844db3b60e21b815260066004820152602481019190915273__$4f3c00a34b6b875e4b39aea1d65b0a10df$__91506361136cec906044015f6040518083038186803b1580156100cd575f5ffd5b505af41580156100df573d5f5f3e3d5ffd5b5050601180546001600160a01b0385166001600160a01b0319918216179091556005805490911633179055506101159050610123565b505050505050505050610480565b5f8061012d610150565b60098190555f818152600c60205260409020805460ff1916600117905592915050565b6008546040516339ebe6e360e01b81526006600482015260ff90911660248201525f9073__$4f3c00a34b6b875e4b39aea1d65b0a10df$__906339ebe6e390604401602060405180830381865af41580156101ad573d5f5f3e3d5ffd5b505050506040513d601f19601f820116820180604052508101906101d19190610469565b905090565b80516001600160a01b03811681146101ec575f5ffd5b919050565b634e487b7160e01b5f52604160045260245ffd5b5f82601f830112610214575f5ffd5b81516001600160401b0381111561022d5761022d6101f1565b604051601f8201601f19908116603f011681016001600160401b038111828210171561025b5761025b6101f1565b604052818152838201602001851015610272575f5ffd5b8160208501602083015e5f918101602001919091529392505050565b5f5f5f5f5f60a086880312156102a2575f5ffd5b855160ff811681146102b2575f5ffd5b94506102c0602087016101d6565b93506102ce604087016101d6565b60608701519093506001600160401b038111156102e9575f5ffd5b6102f588828901610205565b608088015190935090506001600160401b03811115610312575f5ffd5b61031e88828901610205565b9150509295509295909350565b600181811c9082168061033f57607f821691505b60208210810361035d57634e487b7160e01b5f52602260045260245ffd5b50919050565b601f8211156103aa57805f5260205f20601f840160051c810160208510156103885750805b601f840160051c820191505b818110156103a7575f8155600101610394565b50505b505050565b81516001600160401b038111156103c8576103c86101f1565b6103dc816103d6845461032b565b84610363565b6020601f82116001811461040e575f83156103f75750848201515b5f19600385901b1c1916600184901b1784556103a7565b5f84815260208120601f198516915b8281101561043d578785015182556020948501946001909201910161041d565b508482101561045a57868401515f19600387901b60f8161c191681555b50505050600190811b01905550565b5f60208284031215610479575f5ffd5b5051919050565b6117378061048d5f395ff3fe60806040526004361061018c575f3560e01c806370a08231116100db57806370a08231146103d3578063828f227a14610407578063864eb1641461041c578063882f624a1461043b57806395d89b411461045a5780639d1453e51461046e578063a50410a91461049a578063a9059cbb146104b9578063ae5582fa146104d8578063b390c0ab14610501578063d3f9fa5114610520578063dd62ed3e14610539578063de0e9a3e14610558578063df54fe5014610577578063e1758bd81461058c578063e358270d146105ab578063ea598cb0146105d9575f5ffd5b806306fdde0314610190578063095ea7b3146101ba5780630c5312fc146101e957806318160ddd1461020a5780631ec84e8e1461022857806323b872dd1461025657806323f364c51461027557806327e74ca3146102bb57806328b0c0aa146102ce57806329c50fa9146102e25780632ffe1f29146102f7578063313ce56714610325578063485cc9551461034657806357c423e11461036557806367f8da3a146103935780636b95cb05146103bf575b5f5ffd5b34801561019b575f5ffd5b506101a46105f8565b6040516101b1919061127e565b60405180910390f35b3480156101c5575f5ffd5b506101d96101d43660046112b2565b610688565b60405190151581526020016101b1565b3480156101f4575f5ffd5b506102086102033660046112da565b6106a1565b005b348015610215575f5ffd5b506002545b6040519081526020016101b1565b348015610233575f5ffd5b506101d96102423660046112da565b5f908152600c602052604090205460ff1690565b348015610261575f5ffd5b506101d96102703660046112f1565b6106ae565b348015610280575f5ffd5b5060065461029d9064ffffffffff80821691600160281b90041682565b6040805164ffffffffff9384168152929091166020830152016101b1565b6102086102c93660046112da565b6106d1565b3480156102d9575f5ffd5b5061021a610744565b3480156102ed575f5ffd5b5061021a600a5481565b348015610302575f5ffd5b506101d96103113660046112da565b600c6020525f908152604090205460ff1681565b348015610330575f5ffd5b5060065b60405160ff90911681526020016101b1565b348015610351575f5ffd5b5061020861036036600461132b565b6107ca565b348015610370575f5ffd5b506101d961037f3660046112da565b600b6020525f908152604090205460ff1681565b34801561039e575f5ffd5b50600e546103b2906001600160a01b031681565b6040516101b1919061135c565b3480156103ca575f5ffd5b5061021a6108f7565b3480156103de575f5ffd5b5061021a6103ed366004611370565b6001600160a01b03165f9081526020819052604090205490565b348015610412575f5ffd5b5061021a60095481565b348015610427575f5ffd5b50600f546103b2906001600160a01b031681565b348015610446575f5ffd5b50600d546103b2906001600160a01b031681565b348015610465575f5ffd5b506101a4610924565b348015610479575f5ffd5b5061048d610488366004611389565b610933565b6040516101b1919061143f565b3480156104a5575f5ffd5b506102086104b4366004611465565b610a6f565b3480156104c4575f5ffd5b506101d96104d33660046112b2565b610c9a565b3480156104e3575f5ffd5b506104ec610ca7565b604080519283526020830191909152016101b1565b34801561050c575f5ffd5b5061020861051b366004611578565b610cbc565b34801561052b575f5ffd5b506008546103349060ff1681565b348015610544575f5ffd5b5061021a61055336600461132b565b610e15565b348015610563575f5ffd5b506102086105723660046112da565b610e3f565b348015610582575f5ffd5b5061021a60105481565b348015610597575f5ffd5b506011546103b2906001600160a01b031681565b3480156105b6575f5ffd5b506101d96105c53660046112da565b5f908152600b602052604090205460ff1690565b3480156105e4575f5ffd5b506102086105f33660046112da565b610ebc565b60606003805461060790611598565b80601f016020809104026020016040519081016040528092919081815260200182805461063390611598565b801561067e5780601f106106555761010080835404028352916020019161067e565b820191905f5260205f20905b81548152906001019060200180831161066157829003601f168201915b5050505050905090565b5f33610695818585610f3f565b60019150505b92915050565b6106ab3382610f51565b50565b5f336106bb858285610f89565b6106c6858585610fda565b506001949350505050565b600e546001600160a01b031633146107275760405162461bcd60e51b81526020600482015260146024820152732737ba1033b4b3b0a937b7ba283937bb34b232b960611b60448201526064015b60405180910390fd5b5f818152600b60205260409020805460ff19166001179055600a55565b6008546040516339ebe6e360e01b81526006600482015260ff90911660248201525f9073__$4f3c00a34b6b875e4b39aea1d65b0a10df$__906339ebe6e390604401602060405180830381865af41580156107a1573d5f5f3e3d5ffd5b505050506040513d601f19601f820116820180604052508101906107c591906115d0565b905090565b6005546001600160a01b031633146108175760405162461bcd60e51b815260206004820152601060248201526f2737ba103a3432903232b83637bcb2b960811b604482015260640161071e565b600e546001600160a01b0316156108705760405162461bcd60e51b815260206004820152601f60248201527f67696761526f6f7450726f766964657220697320616c72656164792073657400604482015260640161071e565b600d546001600160a01b0316156108c95760405162461bcd60e51b815260206004820152601e60248201527f6c314272696467654164617074657220697320616c7265616479207365740000604482015260640161071e565b600e80546001600160a01b039384166001600160a01b031991821617909155600d8054929093169116179055565b5f5f610901610744565b60098190555f818152600c60205260409020805460ff1916600117905592915050565b60606004805461060790611598565b60408051600a80825261016082019092526060915f919060208201610140803683370190505060408051610100810182528e815260208082018f90528183018e9052606082018d9052608082018c905260a082018b905260c082018a905260e0820189905282518084019093526001600160a01b0380891684528716908301529192505f5b60088110156109ff578281600881106109d3576109d36115e7565b60200201515f1b8482815181106109ec576109ec6115e7565b60209081029190910101526001016109b8565b5060085f5b6002811015610a5b57828160028110610a1f57610a1f6115e7565b60200201516001600160a01b031685610a38838561160f565b81518110610a4857610a486115e7565b6020908102919091010152600101610a04565b50929e9d5050505050505050505050505050565b5f888152600b602052604090205460ff16610ac05760405162461bcd60e51b81526020600482015260116024820152702fb3b4b3b0a937b7ba103ab735b737bbb760791b604482015260640161071e565b5f878152600c602052604090205460ff16610b125760405162461bcd60e51b81526020600482015260126024820152712fb637b1b0b62937b7ba103ab735b737bbb760711b604482015260640161071e565b5f610b258b468c8c8c8c8c8c8c8c610933565b600f54604051633a94343960e21b81529192506001600160a01b03169063ea50d0e490610b589085908590600401611622565b602060405180830381865afa158015610b73573d5f5f3e3d5ffd5b505050506040513d601f19601f82011682018060405250810190610b97919061164f565b610bd35760405162461bcd60e51b815260206004820152600d60248201526c34b73b30b634b210383937b7b360991b604482015260640161071e565b8615610c83575f610be4874861160f565b610bee908961166e565b905085811115610c4b5760405162461bcd60e51b815260206004820152602260248201527f5f72656c61796572466565206973206c6172676572207468616e205f6d617846604482015261656560f01b606482015260840161071e565b5f196001600160a01b03861601610c60573394505b610c6a8582610f51565b610c7d84610c78838e611685565b610f51565b50610c8d565b610c8d838b610f51565b5050505050505050505050565b5f33610695818585610fda565b5f5f610cb16108f7565b505060095491439150565b610cc63382611037565b604080518082018252838152602081018390529051632b0aac7f60e11b81525f9173__$078c82ddf6c95d34ea184ef1dd6130d136$__9163561558fe91610d0f91600401611698565b602060405180830381865af4158015610d2a573d5f5f3e3d5ffd5b505050506040513d601f19601f82011682018060405250810190610d4e91906115d0565b60405163011277af60e11b8152600660048201526024810182905290915073__$4f3c00a34b6b875e4b39aea1d65b0a10df$__90630224ef5e906044015f6040518083038186803b158015610da1575f5ffd5b505af4158015610db3573d5f5f3e3d5ffd5b50505050807f5af801e983cfd842de8b0797a2d6077db3ac2dea16571e0c7f5080291ca1b93483601054604051610df4929190918252602082015260400190565b60405180910390a260108054905f610e0b836116c8565b9190505550505050565b6001600160a01b039182165f90815260016020908152604080832093909416825291909152205490565b60115460405163a9059cbb60e01b8152336004820152602481018390526001600160a01b039091169063a9059cbb906044016020604051808303815f875af1158015610e8d573d5f5f3e3d5ffd5b505050506040513d601f19601f82011682018060405250810190610eb1919061164f565b506106ab3082611037565b6011546040516323b872dd60e01b8152336004820152306024820152604481018390526001600160a01b03909116906323b872dd906064016020604051808303815f875af1158015610f10573d5f5f3e3d5ffd5b505050506040513d601f19601f82011682018060405250810190610f34919061164f565b506106ab3382610f51565b610f4c838383600161106b565b505050565b6001600160a01b038216610f7a575f60405163ec442f0560e01b815260040161071e919061135c565b610f855f838361113d565b5050565b5f610f948484610e15565b90505f19811015610fd45781811015610fc657828183604051637dc7a0d960e11b815260040161071e939291906116e0565b610fd484848484035f61106b565b50505050565b6001600160a01b038316611003575f604051634b637e8f60e11b815260040161071e919061135c565b6001600160a01b03821661102c575f60405163ec442f0560e01b815260040161071e919061135c565b610f4c83838361113d565b6001600160a01b038216611060575f604051634b637e8f60e11b815260040161071e919061135c565b610f85825f8361113d565b6001600160a01b038416611094575f60405163e602df0560e01b815260040161071e919061135c565b6001600160a01b0383166110bd575f604051634a1406b160e11b815260040161071e919061135c565b6001600160a01b038085165f9081526001602090815260408083209387168352929052208290558015610fd457826001600160a01b0316846001600160a01b03167f8c5be1e5ebec7d5bd14f71427d1e84f3dd0314c0f7b2291e5b200ac8c7c3b9258460405161112f91815260200190565b60405180910390a350505050565b6001600160a01b038316611167578060025f82825461115c919061160f565b909155506111c49050565b6001600160a01b0383165f90815260208190526040902054818110156111a65783818360405163391434e360e21b815260040161071e939291906116e0565b6001600160a01b0384165f9081526020819052604090209082900390555b6001600160a01b0382166111e0576002805482900390556111fe565b6001600160a01b0382165f9081526020819052604090208054820190555b816001600160a01b0316836001600160a01b03167fddf252ad1be2c89b69c2b068fc378daa952ba7f163c4a11628f55a4df523b3ef8360405161124391815260200190565b60405180910390a3505050565b5f81518084528060208401602086015e5f602082860101526020601f19601f83011685010191505092915050565b602081525f6112906020830184611250565b9392505050565b80356001600160a01b03811681146112ad575f5ffd5b919050565b5f5f604083850312156112c3575f5ffd5b6112cc83611297565b946020939093013593505050565b5f602082840312156112ea575f5ffd5b5035919050565b5f5f5f60608486031215611303575f5ffd5b61130c84611297565b925061131a60208501611297565b929592945050506040919091013590565b5f5f6040838503121561133c575f5ffd5b61134583611297565b915061135360208401611297565b90509250929050565b6001600160a01b0391909116815260200190565b5f60208284031215611380575f5ffd5b61129082611297565b5f5f5f5f5f5f5f5f5f5f6101408b8d0312156113a3575f5ffd5b8a35995060208b0135985060408b0135975060608b0135965060808b0135955060a08b0135945060c08b0135935060e08b013592506113e56101008c01611297565b91506113f46101208c01611297565b90509295989b9194979a5092959850565b5f8151808452602084019350602083015f5b82811015611435578151865260209586019590910190600101611417565b5093949350505050565b602081525f6112906020830184611405565b634e487b7160e01b5f52604160045260245ffd5b5f5f5f5f5f5f5f5f5f5f6101408b8d03121561147f575f5ffd5b8a35995060208b0135985060408b0135975060608b0135965060808b0135955060a08b0135945060c08b013593506114b960e08c01611297565b92506114c86101008c01611297565b91506101208b01356001600160401b038111156114e3575f5ffd5b8b01601f81018d136114f3575f5ffd5b80356001600160401b0381111561150c5761150c611451565b604051601f8201601f19908116603f011681016001600160401b038111828210171561153a5761153a611451565b6040528181528282016020018f1015611551575f5ffd5b816020840160208301375f602083830101528093505050509295989b9194979a5092959850565b5f5f60408385031215611589575f5ffd5b50508035926020909101359150565b600181811c908216806115ac57607f821691505b6020821081036115ca57634e487b7160e01b5f52602260045260245ffd5b50919050565b5f602082840312156115e0575f5ffd5b5051919050565b634e487b7160e01b5f52603260045260245ffd5b634e487b7160e01b5f52601160045260245ffd5b8082018082111561069b5761069b6115fb565b604081525f6116346040830185611250565b82810360208401526116468185611405565b95945050505050565b5f6020828403121561165f575f5ffd5b81518015158114611290575f5ffd5b808202811582820484141761069b5761069b6115fb565b8181038181111561069b5761069b6115fb565b6040810181835f5b60028110156116bf5781518352602092830192909101906001016116a0565b50505092915050565b5f600182016116d9576116d96115fb565b5060010190565b6001600160a01b03939093168352602083019190915260408201526060019056fea2646970667358221220a81ff6557ea22b069831f99039121fb68c980ce2067e67c8009987f419d9b16064736f6c634300081d0033",
  "linkReferences": {
    "npm/poseidon-solidity@0.0.5/PoseidonT3.sol": {
      "PoseidonT3": [
        {
          "length": 20,
          "start": 4470
        }
      ]
    },
    "project/contracts/LazyIMT.sol": {
      "LazyIMT": [
        {
          "length": 20,
          "start": 153
        },
        {
          "length": 20,
          "start": 373
        },
        {
          "length": 20,
          "start": 3062
        },
        {
          "length": 20,
          "start": 4603
        }
      ]
    }
  },
  "deployedLinkReferences": {
    "npm/poseidon-solidity@0.0.5/PoseidonT3.sol": {
      "PoseidonT3": [
        {
          "length": 20,
          "start": 3305
        }
      ]
    },
    "project/contracts/LazyIMT.sol": {
      "LazyIMT": [
        {
          "length": 20,
          "start": 1897
        },
        {
          "length": 20,
          "start": 3438
        }
      ]
    }
  },
  "immutableReferences": {},
  "inputSourceName": "project/contracts/evm/warptoad/L1WarpToad.sol",
  "buildInfoId": "solc-0_8_29-13bd7b456e3da66b63ba7a4613b3768bcbe11417"
}