{
  "_format": "hh3-artifact-1",
  "contractName": "L1ScrollBridgeAdapter",
  "sourceName": "contracts/evm/adapters/L1ScrollBridgeAdapter.sol",
  "abi": [
    {
      "inputs": [
        {
          "internalType": "address",
          "name": "_l1ScrollMessenger",
          "type": "address"
        }
      ],
      "stateMutability": "nonpayable",
      "type": "constructor"
    },
    {
      "anonymous": false,
      "inputs": [
        {
          "indexed": true,
          "internalType": "uint256",
          "name": "newL2Root",
          "type": "uint256"
        },
        {
          "indexed": false,
          "internalType": "uint256",
          "name": "l2Block",
          "type": "uint256"
        }
      ],
      "name": "ReceivedNewL2Root",
      "type": "event"
    },
    {
      "inputs": [],
      "name": "getLocalRootAndBlock",
      "outputs": [
        {
          "internalType": "uint256",
          "name": "",
          "type": "uint256"
        },
        {
          "internalType": "uint256",
          "name": "",
          "type": "uint256"
        }
      ],
      "stateMutability": "view",
      "type": "function"
    },
    {
      "inputs": [
        {
          "internalType": "uint256",
          "name": "_l2Root",
          "type": "uint256"
        },
        {
          "internalType": "uint256",
          "name": "_l2BlockNumber",
          "type": "uint256"
        }
      ],
      "name": "getNewRootFromL2",
      "outputs": [],
      "stateMutability": "nonpayable",
      "type": "function"
    },
    {
      "inputs": [],
      "name": "gigaBridge",
      "outputs": [
        {
          "internalType": "address",
          "name": "",
          "type": "address"
        }
      ],
      "stateMutability": "view",
      "type": "function"
    },
    {
      "inputs": [
        {
          "internalType": "address",
          "name": "_l2ScrollBridgeAdapter",
          "type": "address"
        },
        {
          "internalType": "address",
          "name": "_gigaRootBridge",
          "type": "address"
        }
      ],
      "name": "initialize",
      "outputs": [],
      "stateMutability": "nonpayable",
      "type": "function"
    },
    {
      "inputs": [],
      "name": "l1ScrollMessenger",
      "outputs": [
        {
          "internalType": "address",
          "name": "",
          "type": "address"
        }
      ],
      "stateMutability": "view",
      "type": "function"
    },
    {
      "inputs": [],
      "name": "l2ScrollBridgeAdapter",
      "outputs": [
        {
          "internalType": "address",
          "name": "",
          "type": "address"
        }
      ],
      "stateMutability": "view",
      "type": "function"
    },
    {
      "inputs": [],
      "name": "mostRecentL2Root",
      "outputs": [
        {
          "internalType": "uint256",
          "name": "",
          "type": "uint256"
        }
      ],
      "stateMutability": "view",
      "type": "function"
    },
    {
      "inputs": [],
      "name": "mostRecentL2RootBlockNumber",
      "outputs": [
        {
          "internalType": "uint256",
          "name": "",
          "type": "uint256"
        }
      ],
      "stateMutability": "view",
      "type": "function"
    },
    {
      "inputs": [
        {
          "internalType": "uint256",
          "name": "_newGigaRoot",
          "type": "uint256"
        }
      ],
      "name": "receiveGigaRoot",
      "outputs": [],
      "stateMutability": "payable",
      "type": "function"
    },
    {
      "inputs": [
        {
          "internalType": "uint256",
          "name": "_newGigaRoot",
          "type": "uint256"
        },
        {
          "internalType": "uint256",
          "name": "_gasLimit",
          "type": "uint256"
        }
      ],
      "name": "receiveGigaRoot",
      "outputs": [],
      "stateMutability": "payable",
      "type": "function"
    }
  ],
  "bytecode": "0x60806040526005805460ff60a01b19169055348015601b575f5ffd5b5060405161080c38038061080c833981016040819052603891606a565b60048054336001600160a01b031991821617909155600580549091166001600160a01b03929092169190911790556095565b5f602082840312156079575f5ffd5b81516001600160a01b0381168114608e575f5ffd5b9392505050565b61076a806100a25f395ff3fe608060405260043610610080575f3560e01c8063010bb8711461008457806327e74ca3146100a55780632f4eb62d146100b857806345c8c289146100e0578063485cc955146100f3578063a98f704414610112578063ac04371014610149578063ae5582fa1461015e578063df37416514610187578063ea300187146101a6575b5f5ffd5b34801561008f575f5ffd5b506100a361009e3660046105b7565b6101c4565b005b6100a36100b33660046105d7565b61037a565b3480156100c3575f5ffd5b506100cd60015481565b6040519081526020015b60405180910390f35b6100a36100ee3660046105b7565b6103d5565b3480156100fe575f5ffd5b506100a361010d366004610602565b6103df565b34801561011d575f5ffd5b50600554610131906001600160a01b031681565b6040516001600160a01b0390911681526020016100d7565b348015610154575f5ffd5b506100cd60025481565b348015610169575f5ffd5b506101726104c2565b604080519283526020830191909152016100d7565b348015610192575f5ffd5b50600354610131906001600160a01b031681565b3480156101b1575f5ffd5b505f54610131906001600160a01b031681565b6005546001600160a01b031633146102345760405162461bcd60e51b815260206004820152602860248201527f66756e6374696f6e206e6f742063616c6c6564206279206c315363726f6c6c4d60448201526732b9b9b2b733b2b960c11b60648201526084015b60405180910390fd5b60055f9054906101000a90046001600160a01b03166001600160a01b0316636e296e456040518163ffffffff1660e01b8152600401602060405180830381865afa158015610284573d5f5f3e3d5ffd5b505050506040513d601f19601f820116820180604052508101906102a89190610639565b5f546001600160a01b039081169116146103285760405162461bcd60e51b815260206004820152603b60248201527f636f6e7472616374206d6573736167696e672066726f6d204c32206973206e6f60448201527a3a103a343290261929b1b937b636213934b233b2a0b230b83a32b960291b606482015260840161022b565b806002541161037657817f475b5c7799f48003a7afb7bac86d23c4d2cfd499581b90657c981e4616318a2c8260405161036391815260200190565b60405180910390a2600182905560028190555b5050565b6003546001600160a01b031633146103c55760405162461bcd60e51b815260206004820152600e60248201526d4e6f74206769676142726964676560901b604482015260640161022b565b6103d281621e8480610512565b50565b6103768282610512565b6004546001600160a01b0316331461042c5760405162461bcd60e51b815260206004820152601060248201526f2737ba103a3432903232b83637bcb2b960811b604482015260640161022b565b600554600160a01b900460ff16156104825760405162461bcd60e51b815260206004820152601960248201527863616e7420696e697469616c697a65206f6e6c79206f6e636560381b604482015260640161022b565b6005805460ff60a01b1916600160a01b1790555f80546001600160a01b039384166001600160a01b03199182161790915560038054929093169116179055565b5f5f5f600154116104e55760405162461bcd60e51b815260040161022b9061065b565b5f600254116105065760405162461bcd60e51b815260040161022b9061065b565b50506001546002549091565b6005545f805460408051602480820188905282518083039091018152604490910182526020810180516001600160e01b03166327e74ca360e01b1790529051635f7b157760e01b81526001600160a01b0394851694635f7b157794349461058594921692909190889032906004016106d1565b5f604051808303818588803b15801561059c575f5ffd5b505af11580156105ae573d5f5f3e3d5ffd5b50505050505050565b5f5f604083850312156105c8575f5ffd5b50508035926020909101359150565b5f602082840312156105e7575f5ffd5b5035919050565b6001600160a01b03811681146103d2575f5ffd5b5f5f60408385031215610613575f5ffd5b823561061e816105ee565b9150602083013561062e816105ee565b809150509250929050565b5f60208284031215610649575f5ffd5b8151610654816105ee565b9392505050565b60208082526050908201527f416e204c3220726f6f74206861736e277420796574206265656e20627269646760408201527f656420746f207468697320636f6e74726163742e2072656672657368526f6f7460608201526f1036bab9ba1031329031b0b63632b21760811b608082015260a00190565b60018060a01b038616815284602082015260a060408201525f84518060a0840152806020870160c085015e5f60c082850181019190915260608401959095526001600160a01b0393909316608083015250601f909101601f19160101939250505056fea26469706673582212203021d5b1b171e59fd909b75b8f51dc79fa8f669d3038e367d1366e0e17f9092864736f6c634300081d0033",
  "linkReferences": {},
  "deployedLinkReferences": {},
  "immutableReferences": {},
  "inputSourceName": "project/contracts/evm/adapters/L1ScrollBridgeAdapter.sol",
  "buildInfoId": "solc-0_8_29-13bd7b456e3da66b63ba7a4613b3768bcbe11417"
}