{
  "_format": "hh3-artifact-1",
  "contractName": "GigaBridge",
  "sourceName": "contracts/evm/GigaBridge.sol",
  "abi": [
    {
      "inputs": [
        {
          "internalType": "address[]",
          "name": "_gigaRootRecipients",
          "type": "address[]"
        },
        {
          "internalType": "uint8",
          "name": "_maxTreeDepth",
          "type": "uint8"
        }
      ],
      "stateMutability": "nonpayable",
      "type": "constructor"
    },
    {
      "anonymous": false,
      "inputs": [
        {
          "indexed": true,
          "internalType": "uint256",
          "name": "newGigaRoot",
          "type": "uint256"
        }
      ],
      "name": "ConstructedNewGigaRoot",
      "type": "event"
    },
    {
      "anonymous": false,
      "inputs": [
        {
          "indexed": true,
          "internalType": "uint256",
          "name": "newLocalRoot",
          "type": "uint256"
        },
        {
          "indexed": true,
          "internalType": "uint40",
          "name": "localRootIndex",
          "type": "uint40"
        },
        {
          "indexed": false,
          "internalType": "uint256",
          "name": "localRootBlockNumber",
          "type": "uint256"
        }
      ],
      "name": "ReceivedNewLocalRoot",
      "type": "event"
    },
    {
      "anonymous": false,
      "inputs": [
        {
          "indexed": true,
          "internalType": "uint256",
          "name": "gigaRoot",
          "type": "uint256"
        }
      ],
      "name": "SentGigaRoot",
      "type": "event"
    },
    {
      "inputs": [],
      "name": "amountOfLocalRoots",
      "outputs": [
        {
          "internalType": "uint256",
          "name": "",
          "type": "uint256"
        }
      ],
      "stateMutability": "view",
      "type": "function"
    },
    {
      "inputs": [
        {
          "internalType": "address",
          "name": "_localRootProvider",
          "type": "address"
        }
      ],
      "name": "getLocalRootProvidersIndex",
      "outputs": [
        {
          "internalType": "uint40",
          "name": "",
          "type": "uint40"
        }
      ],
      "stateMutability": "view",
      "type": "function"
    },
    {
      "inputs": [],
      "name": "gigaRoot",
      "outputs": [
        {
          "internalType": "uint256",
          "name": "",
          "type": "uint256"
        }
      ],
      "stateMutability": "view",
      "type": "function"
    },
    {
      "inputs": [
        {
          "internalType": "address",
          "name": "_localRootProvider",
          "type": "address"
        }
      ],
      "name": "isLocalRootProviders",
      "outputs": [
        {
          "internalType": "bool",
          "name": "",
          "type": "bool"
        }
      ],
      "stateMutability": "view",
      "type": "function"
    },
    {
      "inputs": [
        {
          "internalType": "address",
          "name": "",
          "type": "address"
        }
      ],
      "name": "localRootBlockNumbers",
      "outputs": [
        {
          "internalType": "uint256",
          "name": "",
          "type": "uint256"
        }
      ],
      "stateMutability": "view",
      "type": "function"
    },
    {
      "inputs": [],
      "name": "maxTreeDepth",
      "outputs": [
        {
          "internalType": "uint8",
          "name": "",
          "type": "uint8"
        }
      ],
      "stateMutability": "view",
      "type": "function"
    },
    {
      "inputs": [],
      "name": "rootTreeData",
      "outputs": [
        {
          "internalType": "uint40",
          "name": "maxIndex",
          "type": "uint40"
        },
        {
          "internalType": "uint40",
          "name": "numberOfLeaves",
          "type": "uint40"
        }
      ],
      "stateMutability": "view",
      "type": "function"
    },
    {
      "inputs": [
        {
          "internalType": "address",
          "name": "_gigaRootRecipient",
          "type": "address"
        }
      ],
      "name": "sendGigaRoot",
      "outputs": [],
      "stateMutability": "payable",
      "type": "function"
    },
    {
      "inputs": [
        {
          "internalType": "address[]",
          "name": "_gigaRootRecipients",
          "type": "address[]"
        },
        {
          "internalType": "uint256[]",
          "name": "_amounts",
          "type": "uint256[]"
        }
      ],
      "name": "sendGigaRoot",
      "outputs": [],
      "stateMutability": "payable",
      "type": "function"
    },
    {
      "inputs": [
        {
          "internalType": "address[]",
          "name": "_localRootProvider",
          "type": "address[]"
        }
      ],
      "name": "updateGigaRoot",
      "outputs": [],
      "stateMutability": "nonpayable",
      "type": "function"
    }
  ],
  "bytecode": "0x608060405234801561000f575f5ffd5b50604051610dab380380610dab83398101604081905261002e91610271565b6003805460ff191660ff8316908117909155604051631844db3b60e21b815260016004820152602481019190915273__$83dbd2ff22ae4d0c0ae239b122417c1607$__906361136cec906044015f6040518083038186803b158015610091575f5ffd5b505af41580156100a3573d5f5f3e3d5ffd5b505f925050505b82518164ffffffffff161015610162576100ea838264ffffffffff16815181106100d6576100d661034d565b6020026020010151826101f160201b60201c565b60405163011277af60e11b8152600160048201525f602482015273__$83dbd2ff22ae4d0c0ae239b122417c1607$__90630224ef5e906044015f6040518083038186803b158015610139575f5ffd5b505af415801561014b573d5f5f3e3d5ffd5b50505050808061015a90610375565b9150506100aa565b5081516006556003546040516339ebe6e360e01b81526001600482015260ff909116602482015273__$83dbd2ff22ae4d0c0ae239b122417c1607$__906339ebe6e390604401602060405180830381865af41580156101c3573d5f5f3e3d5ffd5b505050506040513d601f19601f820116820180604052508101906101e7919061039b565b5f55506103d59050565b6101fc8160016103b2565b6001600160a01b03929092165f908152600460205260409020805464ffffffffff191664ffffffffff9093169290921790915550565b634e487b7160e01b5f52604160045260245ffd5b80516001600160a01b038116811461025c575f5ffd5b919050565b805160ff8116811461025c575f5ffd5b5f5f60408385031215610282575f5ffd5b82516001600160401b03811115610297575f5ffd5b8301601f810185136102a7575f5ffd5b80516001600160401b038111156102c0576102c0610232565b604051600582901b90603f8201601f191681016001600160401b03811182821017156102ee576102ee610232565b60405291825260208184018101929081018884111561030b575f5ffd5b6020850194505b838510156103315761032385610246565b815260209485019401610312565b5094506103449250505060208401610261565b90509250929050565b634e487b7160e01b5f52603260045260245ffd5b634e487b7160e01b5f52601160045260245ffd5b5f64ffffffffff821664ffffffffff810361039257610392610361565b60010192915050565b5f602082840312156103ab575f5ffd5b5051919050565b64ffffffffff81811683821601908111156103cf576103cf610361565b92915050565b6109c9806103e25f395ff3fe608060405260043610610080575f3560e01c8063025e24801461008457806329c50fa9146100ac578063363f1dad146100c05780633b7cd9de146101065780633df6effa1461013b5780638e79a15c14610150578063b32a95711461016f578063cc9c92e31461019e578063d3f9fa51146101c9578063ed31090b146101f4575b5f5ffd5b34801561008f575f5ffd5b5061009960065481565b6040519081526020015b60405180910390f35b3480156100b7575f5ffd5b506100995f5481565b3480156100cb575f5ffd5b506001546100e89064ffffffffff80821691600160281b90041682565b6040805164ffffffffff9384168152929091166020830152016100a3565b348015610111575f5ffd5b506101256101203660046106e3565b610207565b60405164ffffffffff90911681526020016100a3565b61014e6101493660046106e3565b610238565b005b34801561015b575f5ffd5b5061014e61016a3660046107da565b6102af565b34801561017a575f5ffd5b5061018e6101893660046106e3565b6105d9565b60405190151581526020016100a3565b3480156101a9575f5ffd5b506100996101b83660046106e3565b60056020525f908152604090205481565b3480156101d4575f5ffd5b506003546101e29060ff1681565b60405160ff90911681526020016100a3565b61014e610202366004610813565b6105fc565b6001600160a01b0381165f908152600460205260408120546102329060019064ffffffffff166108e3565b92915050565b5f8054604051909182915f5160206109745f395f51905f529190a26040516327e74ca360e01b8152600481018290526001600160a01b038316906327e74ca39034906024015f604051808303818588803b158015610294575f5ffd5b505af11580156102a6573d5f5f3e3d5ffd5b50505050505050565b5f5b81518164ffffffffff161015610525575f828264ffffffffff16815181106102db576102db610900565b602002602001015190505f6102ef82610207565b90506102fa826105d9565b6103635760405162461bcd60e51b815260206004820152602f60248201527f41646472657373206973206e6f742061207265676973746572656420726f6f7460448201526e20627269646765206164647265737360881b60648201526084015b60405180910390fd5b5f5f836001600160a01b031663ae5582fa6040518163ffffffff1660e01b815260040160408051808303815f875af11580156103a1573d5f5f3e3d5ffd5b505050506040513d601f19601f820116820180604052508101906103c59190610914565b6001600160a01b0386165f90815260056020526040902054919350915081101561043f5760405162461bcd60e51b815260206004820152602560248201527f6c6f63616c526f6f742068617320746f206265206e65776572206f72207468656044820152642073616d6560d81b606482015260840161035a565b6001600160a01b0384165f908152600560205260409081902082905551630252268f60e21b8152600160048201526024810183905264ffffffffff8416604482015273__$83dbd2ff22ae4d0c0ae239b122417c1607$__906309489a3c906064015f6040518083038186803b1580156104b6575f5ffd5b505af41580156104c8573d5f5f3e3d5ffd5b505050508264ffffffffff16827fd22c20021486e0e86b4af0b379484ed1fb952315fb1e05df3dda5bd6421d936e8360405161050691815260200190565b60405180910390a350505050808061051d90610936565b9150506102b1565b506003546040516339ebe6e360e01b81526001600482015260ff90911660248201525f9073__$83dbd2ff22ae4d0c0ae239b122417c1607$__906339ebe6e390604401602060405180830381865af4158015610583573d5f5f3e3d5ffd5b505050506040513d601f19601f820116820180604052508101906105a7919061095c565b60405190915081907f8e90d8cfb527d5c92458e67bc378f86769c754f180409b1e5c7ec5e183c91820905f90a25f5550565b6001600160a01b03165f9081526004602052604090205464ffffffffff16151590565b5f8054604051909182915f5160206109745f395f51905f529190a25f5b83518110156106c2575f84828151811061063557610635610900565b60200260200101519050806001600160a01b03166327e74ca385848151811061066057610660610900565b6020026020010151856040518363ffffffff1660e01b815260040161068791815260200190565b5f604051808303818588803b15801561069e575f5ffd5b505af11580156106b0573d5f5f3e3d5ffd5b50506001909401935061061992505050565b50505050565b80356001600160a01b03811681146106de575f5ffd5b919050565b5f602082840312156106f3575f5ffd5b6106fc826106c8565b9392505050565b634e487b7160e01b5f52604160045260245ffd5b604051601f8201601f191681016001600160401b038111828210171561073f5761073f610703565b604052919050565b5f6001600160401b0382111561075f5761075f610703565b5060051b60200190565b5f82601f830112610778575f5ffd5b813561078b61078682610747565b610717565b8082825260208201915060208360051b8601019250858311156107ac575f5ffd5b602085015b838110156107d0576107c2816106c8565b8352602092830192016107b1565b5095945050505050565b5f602082840312156107ea575f5ffd5b81356001600160401b038111156107ff575f5ffd5b61080b84828501610769565b949350505050565b5f5f60408385031215610824575f5ffd5b82356001600160401b03811115610839575f5ffd5b61084585828601610769565b92505060208301356001600160401b03811115610860575f5ffd5b8301601f81018513610870575f5ffd5b803561087e61078682610747565b8082825260208201915060208360051b85010192508783111561089f575f5ffd5b6020840193505b828410156108c15783358252602093840193909101906108a6565b809450505050509250929050565b634e487b7160e01b5f52601160045260245ffd5b64ffffffffff8281168282160390811115610232576102326108cf565b634e487b7160e01b5f52603260045260245ffd5b5f5f60408385031215610925575f5ffd5b505080516020909101519092909150565b5f64ffffffffff821664ffffffffff8103610953576109536108cf565b60010192915050565b5f6020828403121561096c575f5ffd5b505191905056fe5262fb268b6ad97e5b83c2aba6751e21eca0cfbef291e46408cddbaca13cd8f4a26469706673582212206da653feaff0746786cc2362799b538d880b4268162163ea25481b8c668d5d3564736f6c634300081d0033",
  "linkReferences": {
    "npm/@zk-kit/lazy-imt.sol@2.0.0-beta.12/LazyIMT.sol": {
      "LazyIMT": [
        {
          "length": 20,
          "start": 94
        },
        {
          "length": 20,
          "start": 262
        },
        {
          "length": 20,
          "start": 395
        },
        {
          "length": 20,
          "start": 2149
        },
        {
          "length": 20,
          "start": 2349
        }
      ]
    }
  },
  "deployedLinkReferences": {
    "npm/@zk-kit/lazy-imt.sol@2.0.0-beta.12/LazyIMT.sol": {
      "LazyIMT": [
        {
          "length": 20,
          "start": 1155
        },
        {
          "length": 20,
          "start": 1355
        }
      ]
    }
  },
  "immutableReferences": {},
  "inputSourceName": "project/contracts/evm/GigaBridge.sol",
  "buildInfoId": "solc-0_8_29-13bd7b456e3da66b63ba7a4613b3768bcbe11417"
}