{
  "_format": "hh3-artifact-1",
  "contractName": "LazyIMT",
  "sourceName": "contracts/LazyIMT.sol",
  "abi": [
    {
      "inputs": [
        {
          "internalType": "uint8",
          "name": "index",
          "type": "uint8"
        }
      ],
      "name": "defaultZero",
      "outputs": [
        {
          "internalType": "uint256",
          "name": "",
          "type": "uint256"
        }
      ],
      "stateMutability": "pure",
      "type": "function"
    },
    {
      "inputs": [
        {
          "internalType": "uint8",
          "name": "level",
          "type": "uint8"
        },
        {
          "internalType": "uint40",
          "name": "index",
          "type": "uint40"
        }
      ],
      "name": "indexForElement",
      "outputs": [
        {
          "internalType": "uint40",
          "name": "",
          "type": "uint40"
        }
      ],
      "stateMutability": "pure",
      "type": "function"
    }
  ],
  "bytecode": "0x611ba9610034600b8282823980515f1a607314602857634e487b7160e01b5f525f60045260245ffd5b305f52607381538281f3fe730000000000000000000000000000000000000000301460806040526004361061008c575f3560e01c80630224ef5e1461009057806309489a3c146100b15780630c26d683146100d057806339ebe6e3146100fe5780633c251db11461011f57806361136cec1461013f578063899375d61461015e578063b7ca3a2d14610189578063ca9ecfd41461019c575b5f5ffd5b81801561009b575f5ffd5b506100af6100aa3660046116af565b6101af565b005b8180156100bc575f5ffd5b506100af6100cb3660046116e8565b6101bd565b6100e36100de36600461172a565b6101cd565b60405164ffffffffff90911681526020015b60405180910390f35b61011161010c36600461175b565b6101e1565b6040519081526020016100f5565b61013261012d36600461177c565b6101ec565b6040516100f591906117ac565b81801561014a575f5ffd5b506100af61015936600461175b565b610203565b818015610169575f5ffd5b506100af6101783660046117ee565b805464ffffffffff60281b19169055565b6101116101973660046117ee565b61020d565b6101116101aa366004611805565b610217565b6101b98282610221565b5050565b6101c88383836103f0565b505050565b5f6101d8838361064f565b90505b92915050565b5f6101d8838361066c565b60606101f9848484610762565b90505b9392505050565b6101b98282610ab1565b5f6101db82610b2d565b5f6101db82610b82565b8154600160281b900464ffffffffff165f516020611b545f395f51905f5282106102665760405162461bcd60e51b815260040161025d9061181e565b60405180910390fd5b825464ffffffffff908116908216106102b95760405162461bcd60e51b815260206004820152601560248201527413185e9e5253550e881d1c9959481a5cc8199d5b1b605a1b604482015260640161025d565b6102c481600161187c565b835464ffffffffff91909116600160281b0264ffffffffff60281b19909116178355815f5b81856001015f6102f9848761064f565b64ffffffffff16815260208101919091526040015f205560018316156103e9575f61032e82610329600187611899565b61064f565b60408051808201825264ffffffffff83165f90815260018a0160209081529083902054825281018690529051632b0aac7f60e11b815291925073__$078c82ddf6c95d34ea184ef1dd6130d136$__9163561558fe9161038f916004016118b6565b602060405180830381865af41580156103aa573d5f5f3e3d5ffd5b505050506040513d601f19601f820116820180604052508101906103ce91906118e6565b647fffffffff600195861c16949093509190910190506102e9565b5050505050565b5f516020611b545f395f51905f52821061041c5760405162461bcd60e51b815260040161025d9061181e565b825464ffffffffff600160281b9091048116908216811161044f5760405162461bcd60e51b815260040161025d906118fd565b825f5b81866001015f610462848861064f565b64ffffffffff1681526020019081526020015f20819055505f816001610488919061192f565b60ff168464ffffffffff16901c64ffffffffff16905060018564ffffffffff16901c64ffffffffff1681116104bd5750610647565b600185165f0361057f575f6104d78361032988600161187c565b60408051808201825286815264ffffffffff83165f90815260018c0160209081529083902054908201529051632b0aac7f60e11b815291925073__$078c82ddf6c95d34ea184ef1dd6130d136$__9163561558fe91610538916004016118b6565b602060405180830381865af4158015610553573d5f5f3e3d5ffd5b505050506040513d601f19601f8201168201806040525081019061057791906118e6565b935050610633565b5f61058f83610329600189611899565b60408051808201825264ffffffffff83165f90815260018c0160209081529083902054825281018790529051632b0aac7f60e11b815291925073__$078c82ddf6c95d34ea184ef1dd6130d136$__9163561558fe916105f0916004016118b6565b602060405180830381865af415801561060b573d5f5f3e3d5ffd5b505050506040513d601f19601f8201168201806040525081019061062f91906118e6565b9350505b50647fffffffff600194851c169301610452565b505050505050565b5f8161066260ff851663ffffffff611948565b6101d8919061187c565b5f5f8260ff16116106bc5760405162461bcd60e51b815260206004820152601a60248201527904c617a79494d543a206465707468206d757374206265203e20360341b604482015260640161025d565b602060ff831611156106e05760405162461bcd60e51b815260040161025d9061196f565b8254600160281b900464ffffffffff16806106ff60ff85166002611ac8565b64ffffffffff16101561074f5760405162461bcd60e51b8152602060048201526018602482015277098c2f4f2929aa87440c2dac4d2ceeadeeae640c8cae0e8d60431b604482015260640161025d565b61075a84828561121c565b949350505050565b825460609064ffffffffff600160281b909104811690841681116107985760405162461bcd60e51b815260040161025d906118fd565b60015b64ffffffffff82166107b160ff83166002611ac8565b64ffffffffff1610156107d057806107c881611ae1565b91505061079b565b8060ff168460ff16101561081d5760405162461bcd60e51b8152602060048201526014602482015273098c2f4f2929aa87440e0e4dedecc40c8cae0e8d60631b604482015260640161025d565b5f8460ff166001600160401b0381111561083957610839611aff565b604051908082528060200260200182016040528015610862578160200160208202803683370190505b50905061087b8784610875600186611b13565b846112e4565b600186165f0361090d5764ffffffffff831661089887600161187c565b64ffffffffff16106108d0576108ad5f610b82565b815f815181106108bf576108bf611b2c565b602002602001018181525050610957565b866001015f6108e65f896001610329919061187c565b64ffffffffff1681526020019081526020015f2054815f815181106108bf576108bf611b2c565b866001015f6109235f60018a6103299190611899565b64ffffffffff1681526020019081526020015f2054815f8151811061094a5761094a611b2c565b6020026020010181815250505b647fffffffff600196871c16955b8560ff168160ff161015610aa65764ffffffffff80851660ff83161c16600188165f03610a45578061099889600161187c565b64ffffffffff1610156109f657886001015f6109bb848b6001610329919061187c565b64ffffffffff1681526020019081526020015f2054838360ff16815181106109e5576109e5611b2c565b602002602001018181525050610a92565b64ffffffffff881660ff8316610a0d600188611899565b64ffffffffff16901c64ffffffffff1611610a4057610a2b82610b82565b838360ff16815181106109e5576109e5611b2c565b610a92565b886001015f610a5b8460018c6103299190611899565b64ffffffffff1681526020019081526020015f2054838360ff1681518110610a8557610a85611b2c565b6020026020010181815250505b50647fffffffff600197881c169601610965565b509695505050505050565b602060ff82161115610aff5760405162461bcd60e51b81526020600482015260176024820152764c617a79494d543a205472656520746f6f206c6172676560481b604482015260640161025d565b610b10600160ff831681901b611b40565b82546001600160501b03191664ffffffffff919091161790915550565b80545f90600160281b900464ffffffffff1660015b64ffffffffff8216610b5860ff83166002611ac8565b64ffffffffff161015610b775780610b6f81611ae1565b915050610b42565b61075a84838361121c565b5f8160ff165f03610b9457505f919050565b8160ff16600103610bc657507f2098f5fb9e239eab3ceac3f27b81e481dc3124d55ffed523a839ee8446b64864919050565b8160ff16600203610bf857507f1069673dcdb12263df301a6ff584a7ec261a44cb9dc68df067a4774460b1f1e1919050565b8160ff16600303610c2a57507f18f43331537ee2af2e3d758d50f72106467c6eea50371dd528d57eb2b856d238919050565b8160ff16600403610c5c57507f07f9d837cb17b0d36320ffe93ba52345f1b728571a568265caac97559dbc952a919050565b8160ff16600503610c8e57507f2b94cf5e8746b3f5c9631f4c5df32907a699c58c94b2ad4d7b5cec1639183f55919050565b8160ff16600603610cc057507f2dee93c5a666459646ea7d22cca9e1bcfed71e6951b953611d11dda32ea09d78919050565b8160ff16600703610cf257507f078295e5a22b84e982cf601eb639597b8b0515a88cb5ac7fa8a4aabe3c87349d919050565b8160ff16600803610d2457507f2fa5e5f18f6027a6501bec864564472a616b2e274a41211a444cbe3a99f3cc61919050565b8160ff16600903610d5657507f0e884376d0d8fd21ecb780389e941f66e45e7acce3e228ab3e2156a614fcd747919050565b8160ff16600a03610d8857507f1b7201da72494f1e28717ad1a52eb469f95892f957713533de6175e5da190af2919050565b8160ff16600b03610dba57507f1f8d8822725e36385200c0b201249819a6e6e1e4650808b5bebc6bface7d7636919050565b8160ff16600c03610dec57507f2c5d82f66c914bafb9701589ba8cfcfb6162b0a12acf88a8d0879a0471b5f85a919050565b8160ff16600d03610e1e57507f14c54148a0940bb820957f5adf3fa1134ef5c4aaa113f4646458f270e0bfbfd0919050565b8160ff16600e03610e5057507f190d33b12f986f961e10c0ee44d8b9af11be25588cad89d416118e4bf4ebe80c919050565b8160ff16600f03610e8257507f22f98aa9ce704152ac17354914ad73ed1167ae6596af510aa5b3649325e06c92919050565b8160ff16601003610eb457507f2a7c7c9b6ce5880b9f6f228d72bf6a575a526f29c66ecceef8b753d38bba7323919050565b8160ff16601103610ee657507f2e8186e558698ec1c67af9c14d463ffc470043c9c2988b954d75dd643f36b992919050565b8160ff16601203610f1857507f0f57c5571e9a4eab49e2c8cf050dae948aef6ead647392273546249d1c1ff10f919050565b8160ff16601303610f4a57507f1830ee67b5fb554ad5f63d4388800e1cfe78e310697d46e43c9ce36134f72cca919050565b8160ff16601403610f7c57507f2134e76ac5d21aab186c2be1dd8f84ee880a1e46eaf712f9d371b6df22191f3e919050565b8160ff16601503610fae57507f19df90ec844ebc4ffeebd866f33859b0c051d8c958ee3aa88f8f8df3db91a5b1919050565b8160ff16601603610fe057507f18cca2a66b5c0787981e69aefd84852d74af0e93ef4912b4648c05f722efe52b919050565b8160ff1660170361101257507f2388909415230d1b4d1304d2d54f473a628338f2efad83fadf05644549d2538d919050565b8160ff1660180361104457507f27171fb4a97b6cc0e9e8f543b5294de866a2af2c9c8d0b1d96e673e4529ed540919050565b8160ff1660190361107657507f2ff6650540f629fd5711a0bc74fc0d28dcb230b9392583e5f8d59696dde6ae21919050565b8160ff16601a036110a857507f120c58f143d491e95902f7f5277778a2e0ad5168f6add75669932630ce611518919050565b8160ff16601b036110da57507f1f21feb70d3f21b07bf853d5e5db03071ec495a0a565a21da2d665d279483795919050565b8160ff16601c0361110c57507f24be905fa71335e14c638cc0f66a8623a826e768068a9e968bb1a1dde18a72d2919050565b8160ff16601d0361113e57507f0f8666b62ed17491c50ceadead57d4cd597ef3821d65c328744c74e553dac26d919050565b8160ff16601e0361117057507f0918d46bf52d98b034413f4a1a1c41594e7a7a3f6ae08cb43d1a2a230e1959ef919050565b8160ff16601f036111a257507f1bbeb01b4c479ecde76917645e404dfa2e26f90d0afc5a65128513ad375c5ff2919050565b8160ff166020036111d457507f2f68a1c58e257e42a17a6c61dff5551ed560b9922ab119d5ac8e184c9734ead9919050565b60405162461bcd60e51b815260206004820152601e60248201527f4c617a79494d543a2064656661756c745a65726f2062616420696e6465780000604482015260640161025d565b5f602060ff831611156112415760405162461bcd60e51b815260040161025d9061196f565b8264ffffffffff165f0361125f5761125882610b82565b90506101fc565b5f61126b83600161192f565b60ff166001600160401b0381111561128557611285611aff565b6040519080825280602002602001820160405280156112ae578160200160208202803683370190505b5090506112bd858585846112e4565b808360ff16815181106112d2576112d2611b2c565b60200260200101519150509392505050565b602060ff831611156113085760405162461bcd60e51b815260040161025d9061196f565b5f8364ffffffffff161161136c5760405162461bcd60e51b815260206004820152602560248201527f4c617a79494d543a206e756d626572206f66206c6561766573206d7573742062604482015264065203e20360dc1b606482015260840161025d565b5f611378600185611899565b9050600181165f036113cb57846001015f6113935f8461064f565b64ffffffffff1681526020019081526020015f2054825f815181106113ba576113ba611b2c565b6020026020010181815250506113f3565b6113d45f610b82565b825f815181106113e6576113e6611b2c565b6020026020010181815250505b5f5b8360ff168160ff16101561064757600182165f036114eb5773__$078c82ddf6c95d34ea184ef1dd6130d136$__63561558fe6040518060400160405280868560ff168151811061144757611447611b2c565b6020026020010151815260200161145d85610b82565b8152506040518263ffffffff1660e01b815260040161147c91906118b6565b602060405180830381865af4158015611497573d5f5f3e3d5ffd5b505050506040513d601f19601f820116820180604052508101906114bb91906118e6565b836114c783600161192f565b60ff16815181106114da576114da611b2c565b60200260200101818152505061169c565b5f6114f782600161192f565b60ff168664ffffffffff16901c64ffffffffff16905060018364ffffffffff16901c64ffffffffff16811115611599575f876001015f61154e85600161153d919061192f565b60018864ffffffffff16901c61064f565b64ffffffffff1681526020019081526020015f205490508085846001611574919061192f565b60ff168151811061158757611587611b2c565b6020026020010181815250505061169a565b5f876001015f6115b0856001886103299190611899565b64ffffffffff1681526020019081526020015f2054905073__$078c82ddf6c95d34ea184ef1dd6130d136$__63561558fe6040518060400160405280848152602001888760ff168151811061160757611607611b2c565b60200260200101518152506040518263ffffffff1660e01b815260040161162e91906118b6565b602060405180830381865af4158015611649573d5f5f3e3d5ffd5b505050506040513d601f19601f8201168201806040525081019061166d91906118e6565b8561167985600161192f565b60ff168151811061168c5761168c611b2c565b602002602001018181525050505b505b647fffffffff600192831c1691016113f5565b5f5f604083850312156116c0575f5ffd5b50508035926020909101359150565b803564ffffffffff811681146116e3575f5ffd5b919050565b5f5f5f606084860312156116fa575f5ffd5b8335925060208401359150611711604085016116cf565b90509250925092565b803560ff811681146116e3575f5ffd5b5f5f6040838503121561173b575f5ffd5b6117448361171a565b9150611752602084016116cf565b90509250929050565b5f5f6040838503121561176c575f5ffd5b823591506117526020840161171a565b5f5f5f6060848603121561178e575f5ffd5b8335925061179e602085016116cf565b91506117116040850161171a565b602080825282518282018190525f918401906040840190835b818110156117e35783518352602093840193909201916001016117c5565b509095945050505050565b5f602082840312156117fe575f5ffd5b5035919050565b5f60208284031215611815575f5ffd5b6101d88261171a565b6020808252602a908201527f4c617a79494d543a206c656166206d757374206265203c20534e41524b5f53436040820152691053105497d19251531160b21b606082015260800190565b634e487b7160e01b5f52601160045260245ffd5b64ffffffffff81811683821601908111156101db576101db611868565b64ffffffffff82811682821603908111156101db576101db611868565b6040810181835f5b60028110156118dd5781518352602092830192909101906001016118be565b50505092915050565b5f602082840312156118f6575f5ffd5b5051919050565b60208082526018908201527713185e9e5253550e881b195859881b5d5cdd08195e1a5cdd60421b604082015260600190565b60ff81811683821601908111156101db576101db611868565b64ffffffffff818116838216029081169081811461196857611968611868565b5092915050565b60208082526023908201527f4c617a79494d543a206465707468206d757374206265203c3d204d41585f44456040820152620a0a8960eb1b606082015260800190565b6001815b60018411156119ed578085048111156119d1576119d1611868565b60018416156119df57908102905b60019390931c9280026119b6565b935093915050565b5f82611a03575060016101db565b81611a0f57505f6101db565b8160018114611a255760028114611a2f57611a61565b60019150506101db565b60ff841115611a4057611a40611868565b6001841b915064ffffffffff821115611a5b57611a5b611868565b506101db565b5060208310610133831016604e8410600b8410161715611a99575081810a64ffffffffff811115611a9457611a94611868565b6101db565b611aa964ffffffffff84846119b2565b8064ffffffffff04821115611ac057611ac0611868565b029392505050565b5f6101d864ffffffffff841664ffffffffff84166119f5565b5f60ff821660ff8103611af657611af6611868565b60010192915050565b634e487b7160e01b5f52604160045260245ffd5b60ff82811682821603908111156101db576101db611868565b634e487b7160e01b5f52603260045260245ffd5b818103818111156101db576101db61186856fe30644e72e131a029b85045b68181585d2833e84879b9709143e1f593f0000001a264697066735822122028765d9745edb0e5c4ad88121a2363445b09560221d106231e50eca0d6a12d6064736f6c634300081d0033",
  "linkReferences": {
    "npm/poseidon-solidity@0.0.5/PoseidonT3.sol": {
      "PoseidonT3": [
        {
          "length": 20,
          "start": 925
        },
        {
          "length": 20,
          "start": 1350
        },
        {
          "length": 20,
          "start": 1534
        },
        {
          "length": 20,
          "start": 5187
        },
        {
          "length": 20,
          "start": 5629
        }
      ]
    }
  },
  "deployedLinkReferences": {
    "npm/poseidon-solidity@0.0.5/PoseidonT3.sol": {
      "PoseidonT3": [
        {
          "length": 20,
          "start": 873
        },
        {
          "length": 20,
          "start": 1298
        },
        {
          "length": 20,
          "start": 1482
        },
        {
          "length": 20,
          "start": 5135
        },
        {
          "length": 20,
          "start": 5577
        }
      ]
    }
  },
  "immutableReferences": {},
  "inputSourceName": "project/contracts/LazyIMT.sol",
  "buildInfoId": "solc-0_8_29-13bd7b456e3da66b63ba7a4613b3768bcbe11417"
}