{
  "_format": "hh3-artifact-1",
  "contractName": "L1AztecBridgeAdapter",
  "sourceName": "contracts/evm/adapters/L1AztecBridgeAdapter.sol",
  "abi": [
    {
      "inputs": [],
      "stateMutability": "nonpayable",
      "type": "constructor"
    },
    {
      "anonymous": false,
      "inputs": [
        {
          "indexed": true,
          "internalType": "bytes32",
          "name": "newGigaRoot",
          "type": "bytes32"
        },
        {
          "indexed": false,
          "internalType": "bytes32",
          "name": "key",
          "type": "bytes32"
        },
        {
          "indexed": false,
          "internalType": "uint256",
          "name": "index",
          "type": "uint256"
        }
      ],
      "name": "NewGigaRootSentToAztec",
      "type": "event"
    },
    {
      "anonymous": false,
      "inputs": [
        {
          "indexed": true,
          "internalType": "uint256",
          "name": "newL2Root",
          "type": "uint256"
        },
        {
          "indexed": false,
          "internalType": "uint256",
          "name": "l2Block",
          "type": "uint256"
        }
      ],
      "name": "ReceivedNewL2Root",
      "type": "event"
    },
    {
      "inputs": [
        {
          "internalType": "bytes32",
          "name": "_newL2Root",
          "type": "bytes32"
        },
        {
          "internalType": "uint256",
          "name": "_bridgedL2BlockNumber",
          "type": "uint256"
        }
      ],
      "name": "getContentHash",
      "outputs": [
        {
          "internalType": "bytes32",
          "name": "",
          "type": "bytes32"
        }
      ],
      "stateMutability": "pure",
      "type": "function"
    },
    {
      "inputs": [],
      "name": "getLocalRootAndBlock",
      "outputs": [
        {
          "internalType": "uint256",
          "name": "",
          "type": "uint256"
        },
        {
          "internalType": "uint256",
          "name": "",
          "type": "uint256"
        }
      ],
      "stateMutability": "view",
      "type": "function"
    },
    {
      "inputs": [
        {
          "internalType": "bytes32",
          "name": "_newL2Root",
          "type": "bytes32"
        },
        {
          "internalType": "uint256",
          "name": "_bridgedL2BlockNumber",
          "type": "uint256"
        },
        {
          "internalType": "uint256",
          "name": "_witnessL2BlockNumber",
          "type": "uint256"
        },
        {
          "internalType": "uint256",
          "name": "_leafIndex",
          "type": "uint256"
        },
        {
          "internalType": "bytes32[]",
          "name": "_path",
          "type": "bytes32[]"
        }
      ],
      "name": "getNewRootFromL2",
      "outputs": [],
      "stateMutability": "nonpayable",
      "type": "function"
    },
    {
      "inputs": [],
      "name": "gigaBridge",
      "outputs": [
        {
          "internalType": "address",
          "name": "",
          "type": "address"
        }
      ],
      "stateMutability": "view",
      "type": "function"
    },
    {
      "inputs": [],
      "name": "inbox",
      "outputs": [
        {
          "internalType": "contract IInbox",
          "name": "",
          "type": "address"
        }
      ],
      "stateMutability": "view",
      "type": "function"
    },
    {
      "inputs": [
        {
          "internalType": "address",
          "name": "_registry",
          "type": "address"
        },
        {
          "internalType": "bytes32",
          "name": "_l2AztecBridgeAdapter",
          "type": "bytes32"
        },
        {
          "internalType": "address",
          "name": "_gigaRootBridge",
          "type": "address"
        }
      ],
      "name": "initialize",
      "outputs": [],
      "stateMutability": "nonpayable",
      "type": "function"
    },
    {
      "inputs": [],
      "name": "l2AztecBridgeAdapter",
      "outputs": [
        {
          "internalType": "bytes32",
          "name": "",
          "type": "bytes32"
        }
      ],
      "stateMutability": "view",
      "type": "function"
    },
    {
      "inputs": [],
      "name": "mostRecentL2Root",
      "outputs": [
        {
          "internalType": "uint256",
          "name": "",
          "type": "uint256"
        }
      ],
      "stateMutability": "view",
      "type": "function"
    },
    {
      "inputs": [],
      "name": "mostRecentL2RootBlockNumber",
      "outputs": [
        {
          "internalType": "uint256",
          "name": "",
          "type": "uint256"
        }
      ],
      "stateMutability": "view",
      "type": "function"
    },
    {
      "inputs": [],
      "name": "outbox",
      "outputs": [
        {
          "internalType": "contract IOutbox",
          "name": "",
          "type": "address"
        }
      ],
      "stateMutability": "view",
      "type": "function"
    },
    {
      "inputs": [
        {
          "internalType": "uint256",
          "name": "_newGigaRoot",
          "type": "uint256"
        }
      ],
      "name": "receiveGigaRoot",
      "outputs": [],
      "stateMutability": "payable",
      "type": "function"
    },
    {
      "inputs": [],
      "name": "rollup",
      "outputs": [
        {
          "internalType": "contract IRollup",
          "name": "",
          "type": "address"
        }
      ],
      "stateMutability": "view",
      "type": "function"
    },
    {
      "inputs": [],
      "name": "rollupVersion",
      "outputs": [
        {
          "internalType": "uint256",
          "name": "",
          "type": "uint256"
        }
      ],
      "stateMutability": "view",
      "type": "function"
    }
  ],
  "bytecode": "0x60806040526008805460ff60a01b19169055348015601b575f5ffd5b50600880546001600160a01b03191633179055610ba28061003b5f395ff3fe6080604052600436106100a1575f3560e01c806327e74ca3146100a55780632f4eb62d146100ba5780634bd1a1c6146100e257806395e2c67614610101578063ac04371014610120578063ae5582fa14610135578063b08938871461015e578063cb23bcb514610173578063ce11e6ab146101aa578063d0623e6d146101c9578063d26b3e6e146101dd578063df374165146101fc578063fb0e722b1461021b575b5f5ffd5b6100b86100b3366004610890565b61023a565b005b3480156100c5575f5ffd5b506100cf60015481565b6040519081526020015b60405180910390f35b3480156100ed575f5ffd5b506100b86100fc3660046108a7565b610296565b34801561010c575f5ffd5b506100cf61011b36600461093b565b61039f565b34801561012b575f5ffd5b506100cf60025481565b348015610140575f5ffd5b506101496103da565b604080519283526020830191909152016100d9565b348015610169575f5ffd5b506100cf60065481565b34801561017e575f5ffd5b50600354610192906001600160a01b031681565b6040516001600160a01b0390911681526020016100d9565b3480156101b5575f5ffd5b50600454610192906001600160a01b031681565b3480156101d4575f5ffd5b506100cf5f5481565b3480156101e8575f5ffd5b506100b86101f736600461096f565b61042a565b348015610207575f5ffd5b50600754610192906001600160a01b031681565b348015610226575f5ffd5b50600554610192906001600160a01b031681565b6007546001600160a01b0316331461028a5760405162461bcd60e51b815260206004820152600e60248201526d4e6f74206769676142726964676560901b60448201526064015b60405180910390fd5b610293816106e9565b50565b5f6102a1878761039f565b6040805160a0810182525f5460608201908152600654608083015281528151808301835230815246602080830191909152820152808201839052600480549251637fb3496760e01b815293945090926001600160a01b0390921691637fb34967916103169185918b918b918b918b91016109ae565b5f604051808303815f87803b15801561032d575f5ffd5b505af115801561033f573d5f5f3e3d5ffd5b50506002548a92508910905061039457807f475b5c7799f48003a7afb7bac86d23c4d2cfd499581b90657c981e4616318a2c8960405161038191815260200190565b60405180910390a2600181905560028890555b505050505050505050565b5f6103d383836040516020016103bf929190918252602082015260400190565b6040516020818303038152906040526107f5565b9392505050565b5f5f5f600154116103fd5760405162461bcd60e51b815260040161028190610a3c565b5f6002541161041e5760405162461bcd60e51b815260040161028190610a3c565b50506001546002549091565b6008546001600160a01b031633146104775760405162461bcd60e51b815260206004820152601060248201526f2737ba103a3432903232b83637bcb2b960811b6044820152606401610281565b600854600160a01b900460ff16156104c95760405162461bcd60e51b815260206004820152601560248201527463616e7420696e697469616c697a6520747769636560581b6044820152606401610281565b6008805460ff60a01b1916600160a01b1790555f8290556040805163971b0e6b60e01b815290516001600160a01b0385169163971b0e6b9160048083019260209291908290030181865afa158015610523573d5f5f3e3d5ffd5b505050506040513d601f19601f820116820180604052508101906105479190610ab2565b600380546001600160a01b0319166001600160a01b039290921691821790556040805163a32fbb7b60e01b8152905163a32fbb7b916004808201926020929091908290030181865afa15801561059f573d5f5f3e3d5ffd5b505050506040513d601f19601f820116820180604052508101906105c39190610ab2565b600480546001600160a01b0319166001600160a01b0392831617815560035460408051630da3024f60e21b81529051919093169263368c093c92818101926020929091908290030181865afa15801561061e573d5f5f3e3d5ffd5b505050506040513d601f19601f820116820180604052508101906106429190610ab2565b600580546001600160a01b0319166001600160a01b03928316179055600354604080516303639b8b60e21b815290519190921691630d8e6e2c9160048083019260209291908290030181865afa15801561069e573d5f5f3e3d5ffd5b505050506040513d601f19601f820116820180604052508101906106c29190610acd565b600655600780546001600160a01b0319166001600160a01b03929092169190911790555050565b6040805180820182525f80548252600654602083019081526005549351631f6d510b60e01b81528351600482015290516024820152604481018590527e1dc7b0244cb71a4609d526300ba6771064bd046848666f7bfe577053d630c56064820181905292938593929182916001600160a01b031690631f6d510b9060840160408051808303815f875af1158015610782573d5f5f3e3d5ffd5b505050506040513d601f19601f820116820180604052508101906107a69190610ae4565b91509150837f64986607a90a031414cac90eb78251d467a1219888fd4297669057a97185334583836040516107e5929190918252602082015260400190565b60405180910390a2505050505050565b6040805160018082528183019092525f91602082018180368337019050506002836040516108239190610b1d565b602060405180830381855afa15801561083e573d5f5f3e3d5ffd5b5050506040513d601f19601f820116820180604052508101906108619190610acd565b604051602001610872929190610b28565b60405160208183030381529060405261088a90610b46565b92915050565b5f602082840312156108a0575f5ffd5b5035919050565b5f5f5f5f5f5f60a087890312156108bc575f5ffd5b8635955060208701359450604087013593506060870135925060808701356001600160401b038111156108ed575f5ffd5b8701601f810189136108fd575f5ffd5b80356001600160401b03811115610912575f5ffd5b8960208260051b8401011115610926575f5ffd5b60208201935080925050509295509295509295565b5f5f6040838503121561094c575f5ffd5b50508035926020909101359150565b6001600160a01b0381168114610293575f5ffd5b5f5f5f60608486031215610981575f5ffd5b833561098c8161095b565b92506020840135915060408401356109a38161095b565b809150509250925092565b6109c381875180518252602090810151910152565b60208681015180516001600160a01b03166040848101919091529101516060830152860151608082015260a0810185905260c0810184905261010060e0820181905281018290525f6001600160fb1b03831115610a1e575f5ffd5b8260051b808561012085013791909101610120019695505050505050565b60208082526050908201527f416e204c3220726f6f74206861736e277420796574206265656e20627269646760408201527f656420746f207468697320636f6e74726163742e2072656672657368526f6f7460608201526f1036bab9ba1031329031b0b63632b21760811b608082015260a00190565b5f60208284031215610ac2575f5ffd5b81516103d38161095b565b5f60208284031215610add575f5ffd5b5051919050565b5f5f60408385031215610af5575f5ffd5b505080516020909101519092909150565b5f81518060208401855e5f93019283525090919050565b5f6103d38284610b06565b5f610b338285610b06565b60ff199390931683525050601f01919050565b80516020808301519190811015610b66575f198160200360031b1b821691505b5091905056fea264697066735822122040d227fc23a30ccabf95383686f3bbb3b842fd48971a737ec362bdd5361127ac64736f6c634300081d0033",
  "linkReferences": {},
  "deployedLinkReferences": {},
  "immutableReferences": {},
  "inputSourceName": "project/contracts/evm/adapters/L1AztecBridgeAdapter.sol",
  "buildInfoId": "solc-0_8_29-13bd7b456e3da66b63ba7a4613b3768bcbe11417"
}