{
  "_format": "hh3-artifact-1",
  "contractName": "USDcoin",
  "sourceName": "contracts/evm/test/USDcoin.sol",
  "abi": [
    {
      "inputs": [],
      "stateMutability": "nonpayable",
      "type": "constructor"
    },
    {
      "inputs": [
        {
          "internalType": "address",
          "name": "spender",
          "type": "address"
        },
        {
          "internalType": "uint256",
          "name": "allowance",
          "type": "uint256"
        },
        {
          "internalType": "uint256",
          "name": "needed",
          "type": "uint256"
        }
      ],
      "name": "ERC20InsufficientAllowance",
      "type": "error"
    },
    {
      "inputs": [
        {
          "internalType": "address",
          "name": "sender",
          "type": "address"
        },
        {
          "internalType": "uint256",
          "name": "balance",
          "type": "uint256"
        },
        {
          "internalType": "uint256",
          "name": "needed",
          "type": "uint256"
        }
      ],
      "name": "ERC20InsufficientBalance",
      "type": "error"
    },
    {
      "inputs": [
        {
          "internalType": "address",
          "name": "approver",
          "type": "address"
        }
      ],
      "name": "ERC20InvalidApprover",
      "type": "error"
    },
    {
      "inputs": [
        {
          "internalType": "address",
          "name": "receiver",
          "type": "address"
        }
      ],
      "name": "ERC20InvalidReceiver",
      "type": "error"
    },
    {
      "inputs": [
        {
          "internalType": "address",
          "name": "sender",
          "type": "address"
        }
      ],
      "name": "ERC20InvalidSender",
      "type": "error"
    },
    {
      "inputs": [
        {
          "internalType": "address",
          "name": "spender",
          "type": "address"
        }
      ],
      "name": "ERC20InvalidSpender",
      "type": "error"
    },
    {
      "anonymous": false,
      "inputs": [
        {
          "indexed": true,
          "internalType": "address",
          "name": "owner",
          "type": "address"
        },
        {
          "indexed": true,
          "internalType": "address",
          "name": "spender",
          "type": "address"
        },
        {
          "indexed": false,
          "internalType": "uint256",
          "name": "value",
          "type": "uint256"
        }
      ],
      "name": "Approval",
      "type": "event"
    },
    {
      "anonymous": false,
      "inputs": [
        {
          "indexed": true,
          "internalType": "address",
          "name": "from",
          "type": "address"
        },
        {
          "indexed": true,
          "internalType": "address",
          "name": "to",
          "type": "address"
        },
        {
          "indexed": false,
          "internalType": "uint256",
          "name": "value",
          "type": "uint256"
        }
      ],
      "name": "Transfer",
      "type": "event"
    },
    {
      "inputs": [
        {
          "internalType": "address",
          "name": "owner",
          "type": "address"
        },
        {
          "internalType": "address",
          "name": "spender",
          "type": "address"
        }
      ],
      "name": "allowance",
      "outputs": [
        {
          "internalType": "uint256",
          "name": "",
          "type": "uint256"
        }
      ],
      "stateMutability": "view",
      "type": "function"
    },
    {
      "inputs": [
        {
          "internalType": "address",
          "name": "spender",
          "type": "address"
        },
        {
          "internalType": "uint256",
          "name": "value",
          "type": "uint256"
        }
      ],
      "name": "approve",
      "outputs": [
        {
          "internalType": "bool",
          "name": "",
          "type": "bool"
        }
      ],
      "stateMutability": "nonpayable",
      "type": "function"
    },
    {
      "inputs": [
        {
          "internalType": "address",
          "name": "account",
          "type": "address"
        }
      ],
      "name": "balanceOf",
      "outputs": [
        {
          "internalType": "uint256",
          "name": "",
          "type": "uint256"
        }
      ],
      "stateMutability": "view",
      "type": "function"
    },
    {
      "inputs": [],
      "name": "decimals",
      "outputs": [
        {
          "internalType": "uint8",
          "name": "",
          "type": "uint8"
        }
      ],
      "stateMutability": "view",
      "type": "function"
    },
    {
      "inputs": [
        {
          "internalType": "uint256",
          "name": "_amount",
          "type": "uint256"
        }
      ],
      "name": "getFreeShit",
      "outputs": [],
      "stateMutability": "nonpayable",
      "type": "function"
    },
    {
      "inputs": [],
      "name": "name",
      "outputs": [
        {
          "internalType": "string",
          "name": "",
          "type": "string"
        }
      ],
      "stateMutability": "view",
      "type": "function"
    },
    {
      "inputs": [],
      "name": "symbol",
      "outputs": [
        {
          "internalType": "string",
          "name": "",
          "type": "string"
        }
      ],
      "stateMutability": "view",
      "type": "function"
    },
    {
      "inputs": [],
      "name": "totalSupply",
      "outputs": [
        {
          "internalType": "uint256",
          "name": "",
          "type": "uint256"
        }
      ],
      "stateMutability": "view",
      "type": "function"
    },
    {
      "inputs": [
        {
          "internalType": "address",
          "name": "to",
          "type": "address"
        },
        {
          "internalType": "uint256",
          "name": "value",
          "type": "uint256"
        }
      ],
      "name": "transfer",
      "outputs": [
        {
          "internalType": "bool",
          "name": "",
          "type": "bool"
        }
      ],
      "stateMutability": "nonpayable",
      "type": "function"
    },
    {
      "inputs": [
        {
          "internalType": "address",
          "name": "from",
          "type": "address"
        },
        {
          "internalType": "address",
          "name": "to",
          "type": "address"
        },
        {
          "internalType": "uint256",
          "name": "value",
          "type": "uint256"
        }
      ],
      "name": "transferFrom",
      "outputs": [
        {
          "internalType": "bool",
          "name": "",
          "type": "bool"
        }
      ],
      "stateMutability": "nonpayable",
      "type": "function"
    }
  ],
  "bytecode": "0x608060405234801561000f575f5ffd5b50604051806040016040528060088152602001672aa9a21021b7b4b760c11b815250604051806040016040528060048152602001635553444360e01b815250816003908161005d919061010a565b50600461006a828261010a565b5050506101c4565b634e487b7160e01b5f52604160045260245ffd5b600181811c9082168061009a57607f821691505b6020821081036100b857634e487b7160e01b5f52602260045260245ffd5b50919050565b601f82111561010557805f5260205f20601f840160051c810160208510156100e35750805b601f840160051c820191505b81811015610102575f81556001016100ef565b50505b505050565b81516001600160401b0381111561012357610123610072565b610137816101318454610086565b846100be565b6020601f821160018114610169575f83156101525750848201515b5f19600385901b1c1916600184901b178455610102565b5f84815260208120601f198516915b828110156101985787850151825560209485019460019092019101610178565b50848210156101b557868401515f19600387901b60f8161c191681555b50505050600190811b01905550565b610751806101d15f395ff3fe608060405234801561000f575f5ffd5b506004361061008c575f3560e01c806306fdde0314610090578063095ea7b3146100ae5780630c5312fc146100d157806318160ddd146100e657806323b872dd146100f8578063313ce5671461010b57806370a082311461011a57806395d89b4114610142578063a9059cbb1461014a578063dd62ed3e1461015d575b5f5ffd5b610098610170565b6040516100a59190610575565b60405180910390f35b6100c16100bc3660046105c5565b610200565b60405190151581526020016100a5565b6100e46100df3660046105ed565b610219565b005b6002545b6040519081526020016100a5565b6100c1610106366004610604565b610226565b604051600681526020016100a5565b6100ea61012836600461063e565b6001600160a01b03165f9081526020819052604090205490565b610098610249565b6100c16101583660046105c5565b610258565b6100ea61016b36600461065e565b610265565b60606003805461017f9061068f565b80601f01602080910402602001604051908101604052809291908181526020018280546101ab9061068f565b80156101f65780601f106101cd576101008083540402835291602001916101f6565b820191905f5260205f20905b8154815290600101906020018083116101d957829003601f168201915b5050505050905090565b5f3361020d81858561028f565b60019150505b92915050565b61022333826102a1565b50565b5f336102338582856102e2565b61023e858585610333565b506001949350505050565b60606004805461017f9061068f565b5f3361020d818585610333565b6001600160a01b039182165f90815260016020908152604080832093909416825291909152205490565b61029c8383836001610390565b505050565b6001600160a01b0382166102d3575f60405163ec442f0560e01b81526004016102ca91906106c7565b60405180910390fd5b6102de5f8383610462565b5050565b5f6102ed8484610265565b90505f1981101561032d578181101561031f57828183604051637dc7a0d960e11b81526004016102ca939291906106db565b61032d84848484035f610390565b50505050565b6001600160a01b03831661035c575f604051634b637e8f60e11b81526004016102ca91906106c7565b6001600160a01b038216610385575f60405163ec442f0560e01b81526004016102ca91906106c7565b61029c838383610462565b6001600160a01b0384166103b9575f60405163e602df0560e01b81526004016102ca91906106c7565b6001600160a01b0383166103e2575f604051634a1406b160e11b81526004016102ca91906106c7565b6001600160a01b038085165f908152600160209081526040808320938716835292905220829055801561032d57826001600160a01b0316846001600160a01b03167f8c5be1e5ebec7d5bd14f71427d1e84f3dd0314c0f7b2291e5b200ac8c7c3b9258460405161045491815260200190565b60405180910390a350505050565b6001600160a01b03831661048c578060025f82825461048191906106fc565b909155506104e99050565b6001600160a01b0383165f90815260208190526040902054818110156104cb5783818360405163391434e360e21b81526004016102ca939291906106db565b6001600160a01b0384165f9081526020819052604090209082900390555b6001600160a01b03821661050557600280548290039055610523565b6001600160a01b0382165f9081526020819052604090208054820190555b816001600160a01b0316836001600160a01b03167fddf252ad1be2c89b69c2b068fc378daa952ba7f163c4a11628f55a4df523b3ef8360405161056891815260200190565b60405180910390a3505050565b602081525f82518060208401528060208501604085015e5f604082850101526040601f19601f83011684010191505092915050565b80356001600160a01b03811681146105c0575f5ffd5b919050565b5f5f604083850312156105d6575f5ffd5b6105df836105aa565b946020939093013593505050565b5f602082840312156105fd575f5ffd5b5035919050565b5f5f5f60608486031215610616575f5ffd5b61061f846105aa565b925061062d602085016105aa565b929592945050506040919091013590565b5f6020828403121561064e575f5ffd5b610657826105aa565b9392505050565b5f5f6040838503121561066f575f5ffd5b610678836105aa565b9150610686602084016105aa565b90509250929050565b600181811c908216806106a357607f821691505b6020821081036106c157634e487b7160e01b5f52602260045260245ffd5b50919050565b6001600160a01b0391909116815260200190565b6001600160a01b039390931683526020830191909152604082015260600190565b8082018082111561021357634e487b7160e01b5f52601160045260245ffdfea264697066735822122015a65bff277d06bc4d69f54644244de7151cc5b08f140532d0a42bf68f13b2ad64736f6c634300081d0033",
  "linkReferences": {},
  "deployedLinkReferences": {},
  "immutableReferences": {},
  "inputSourceName": "project/contracts/evm/test/USDcoin.sol",
  "buildInfoId": "solc-0_8_29-2d3ad671c7e106dbb318c74c88182a87ca74f055"
}