{
  "_format": "hh3-artifact-1",
  "contractName": "USDcoin",
  "sourceName": "contracts/evm/test/USDcoin.sol",
  "abi": [
    {
      "inputs": [],
      "stateMutability": "nonpayable",
      "type": "constructor"
    },
    {
      "inputs": [
        {
          "internalType": "address",
          "name": "spender",
          "type": "address"
        },
        {
          "internalType": "uint256",
          "name": "allowance",
          "type": "uint256"
        },
        {
          "internalType": "uint256",
          "name": "needed",
          "type": "uint256"
        }
      ],
      "name": "ERC20InsufficientAllowance",
      "type": "error"
    },
    {
      "inputs": [
        {
          "internalType": "address",
          "name": "sender",
          "type": "address"
        },
        {
          "internalType": "uint256",
          "name": "balance",
          "type": "uint256"
        },
        {
          "internalType": "uint256",
          "name": "needed",
          "type": "uint256"
        }
      ],
      "name": "ERC20InsufficientBalance",
      "type": "error"
    },
    {
      "inputs": [
        {
          "internalType": "address",
          "name": "approver",
          "type": "address"
        }
      ],
      "name": "ERC20InvalidApprover",
      "type": "error"
    },
    {
      "inputs": [
        {
          "internalType": "address",
          "name": "receiver",
          "type": "address"
        }
      ],
      "name": "ERC20InvalidReceiver",
      "type": "error"
    },
    {
      "inputs": [
        {
          "internalType": "address",
          "name": "sender",
          "type": "address"
        }
      ],
      "name": "ERC20InvalidSender",
      "type": "error"
    },
    {
      "inputs": [
        {
          "internalType": "address",
          "name": "spender",
          "type": "address"
        }
      ],
      "name": "ERC20InvalidSpender",
      "type": "error"
    },
    {
      "anonymous": false,
      "inputs": [
        {
          "indexed": true,
          "internalType": "address",
          "name": "owner",
          "type": "address"
        },
        {
          "indexed": true,
          "internalType": "address",
          "name": "spender",
          "type": "address"
        },
        {
          "indexed": false,
          "internalType": "uint256",
          "name": "value",
          "type": "uint256"
        }
      ],
      "name": "Approval",
      "type": "event"
    },
    {
      "anonymous": false,
      "inputs": [
        {
          "indexed": true,
          "internalType": "address",
          "name": "from",
          "type": "address"
        },
        {
          "indexed": true,
          "internalType": "address",
          "name": "to",
          "type": "address"
        },
        {
          "indexed": false,
          "internalType": "uint256",
          "name": "value",
          "type": "uint256"
        }
      ],
      "name": "Transfer",
      "type": "event"
    },
    {
      "inputs": [
        {
          "internalType": "address",
          "name": "owner",
          "type": "address"
        },
        {
          "internalType": "address",
          "name": "spender",
          "type": "address"
        }
      ],
      "name": "allowance",
      "outputs": [
        {
          "internalType": "uint256",
          "name": "",
          "type": "uint256"
        }
      ],
      "stateMutability": "view",
      "type": "function"
    },
    {
      "inputs": [
        {
          "internalType": "address",
          "name": "spender",
          "type": "address"
        },
        {
          "internalType": "uint256",
          "name": "value",
          "type": "uint256"
        }
      ],
      "name": "approve",
      "outputs": [
        {
          "internalType": "bool",
          "name": "",
          "type": "bool"
        }
      ],
      "stateMutability": "nonpayable",
      "type": "function"
    },
    {
      "inputs": [
        {
          "internalType": "address",
          "name": "account",
          "type": "address"
        }
      ],
      "name": "balanceOf",
      "outputs": [
        {
          "internalType": "uint256",
          "name": "",
          "type": "uint256"
        }
      ],
      "stateMutability": "view",
      "type": "function"
    },
    {
      "inputs": [],
      "name": "decimals",
      "outputs": [
        {
          "internalType": "uint8",
          "name": "",
          "type": "uint8"
        }
      ],
      "stateMutability": "view",
      "type": "function"
    },
    {
      "inputs": [
        {
          "internalType": "uint256",
          "name": "_amount",
          "type": "uint256"
        }
      ],
      "name": "getFreeShit",
      "outputs": [],
      "stateMutability": "nonpayable",
      "type": "function"
    },
    {
      "inputs": [],
      "name": "name",
      "outputs": [
        {
          "internalType": "string",
          "name": "",
          "type": "string"
        }
      ],
      "stateMutability": "view",
      "type": "function"
    },
    {
      "inputs": [],
      "name": "symbol",
      "outputs": [
        {
          "internalType": "string",
          "name": "",
          "type": "string"
        }
      ],
      "stateMutability": "view",
      "type": "function"
    },
    {
      "inputs": [],
      "name": "totalSupply",
      "outputs": [
        {
          "internalType": "uint256",
          "name": "",
          "type": "uint256"
        }
      ],
      "stateMutability": "view",
      "type": "function"
    },
    {
      "inputs": [
        {
          "internalType": "address",
          "name": "to",
          "type": "address"
        },
        {
          "internalType": "uint256",
          "name": "value",
          "type": "uint256"
        }
      ],
      "name": "transfer",
      "outputs": [
        {
          "internalType": "bool",
          "name": "",
          "type": "bool"
        }
      ],
      "stateMutability": "nonpayable",
      "type": "function"
    },
    {
      "inputs": [
        {
          "internalType": "address",
          "name": "from",
          "type": "address"
        },
        {
          "internalType": "address",
          "name": "to",
          "type": "address"
        },
        {
          "internalType": "uint256",
          "name": "value",
          "type": "uint256"
        }
      ],
      "name": "transferFrom",
      "outputs": [
        {
          "internalType": "bool",
          "name": "",
          "type": "bool"
        }
      ],
      "stateMutability": "nonpayable",
      "type": "function"
    }
  ],
  "bytecode": "0x608060405234801561000f575f5ffd5b50604051806040016040528060088152602001672aa9a21021b7b4b760c11b815250604051806040016040528060048152602001635553444360e01b815250816003908161005d919061010a565b50600461006a828261010a565b5050506101c4565b634e487b7160e01b5f52604160045260245ffd5b600181811c9082168061009a57607f821691505b6020821081036100b857634e487b7160e01b5f52602260045260245ffd5b50919050565b601f82111561010557805f5260205f20601f840160051c810160208510156100e35750805b601f840160051c820191505b81811015610102575f81556001016100ef565b50505b505050565b81516001600160401b0381111561012357610123610072565b610137816101318454610086565b846100be565b6020601f821160018114610169575f83156101525750848201515b5f19600385901b1c1916600184901b178455610102565b5f84815260208120601f198516915b828110156101985787850151825560209485019460019092019101610178565b50848210156101b557868401515f19600387901b60f8161c191681555b50505050600190811b01905550565b610760806101d15f395ff3fe608060405234801561000f575f5ffd5b506004361061009b575f3560e01c8063313ce56711610063578063313ce5671461011a57806370a082311461012957806395d89b4114610151578063a9059cbb14610159578063dd62ed3e1461016c575f5ffd5b806306fdde031461009f578063095ea7b3146100bd5780630c5312fc146100e057806318160ddd146100f557806323b872dd14610107575b5f5ffd5b6100a76101a4565b6040516100b491906105b9565b60405180910390f35b6100d06100cb366004610609565b610234565b60405190151581526020016100b4565b6100f36100ee366004610631565b61024d565b005b6002545b6040519081526020016100b4565b6100d0610115366004610648565b61025a565b604051600681526020016100b4565b6100f9610137366004610682565b6001600160a01b03165f9081526020819052604090205490565b6100a761027d565b6100d0610167366004610609565b61028c565b6100f961017a3660046106a2565b6001600160a01b039182165f90815260016020908152604080832093909416825291909152205490565b6060600380546101b3906106d3565b80601f01602080910402602001604051908101604052809291908181526020018280546101df906106d3565b801561022a5780601f106102015761010080835404028352916020019161022a565b820191905f5260205f20905b81548152906001019060200180831161020d57829003601f168201915b5050505050905090565b5f33610241818585610299565b60019150505b92915050565b61025733826102ab565b50565b5f336102678582856102e8565b610272858585610364565b506001949350505050565b6060600480546101b3906106d3565b5f33610241818585610364565b6102a683838360016103c1565b505050565b6001600160a01b0382166102d95760405163ec442f0560e01b81525f60048201526024015b60405180910390fd5b6102e45f8383610493565b5050565b6001600160a01b038381165f908152600160209081526040808320938616835292905220545f1981101561035e578181101561035057604051637dc7a0d960e11b81526001600160a01b038416600482015260248101829052604481018390526064016102d0565b61035e84848484035f6103c1565b50505050565b6001600160a01b03831661038d57604051634b637e8f60e11b81525f60048201526024016102d0565b6001600160a01b0382166103b65760405163ec442f0560e01b81525f60048201526024016102d0565b6102a6838383610493565b6001600160a01b0384166103ea5760405163e602df0560e01b81525f60048201526024016102d0565b6001600160a01b03831661041357604051634a1406b160e11b81525f60048201526024016102d0565b6001600160a01b038085165f908152600160209081526040808320938716835292905220829055801561035e57826001600160a01b0316846001600160a01b03167f8c5be1e5ebec7d5bd14f71427d1e84f3dd0314c0f7b2291e5b200ac8c7c3b9258460405161048591815260200190565b60405180910390a350505050565b6001600160a01b0383166104bd578060025f8282546104b2919061070b565b9091555061052d9050565b6001600160a01b0383165f908152602081905260409020548181101561050f5760405163391434e360e21b81526001600160a01b038516600482015260248101829052604481018390526064016102d0565b6001600160a01b0384165f9081526020819052604090209082900390555b6001600160a01b03821661054957600280548290039055610567565b6001600160a01b0382165f9081526020819052604090208054820190555b816001600160a01b0316836001600160a01b03167fddf252ad1be2c89b69c2b068fc378daa952ba7f163c4a11628f55a4df523b3ef836040516105ac91815260200190565b60405180910390a3505050565b602081525f82518060208401528060208501604085015e5f604082850101526040601f19601f83011684010191505092915050565b80356001600160a01b0381168114610604575f5ffd5b919050565b5f5f6040838503121561061a575f5ffd5b610623836105ee565b946020939093013593505050565b5f60208284031215610641575f5ffd5b5035919050565b5f5f5f6060848603121561065a575f5ffd5b610663846105ee565b9250610671602085016105ee565b929592945050506040919091013590565b5f60208284031215610692575f5ffd5b61069b826105ee565b9392505050565b5f5f604083850312156106b3575f5ffd5b6106bc836105ee565b91506106ca602084016105ee565b90509250929050565b600181811c908216806106e757607f821691505b60208210810361070557634e487b7160e01b5f52602260045260245ffd5b50919050565b8082018082111561024757634e487b7160e01b5f52601160045260245ffdfea2646970667358221220eaf2981c157c4dee1fe42a4c1651fee1cc2ad287848a29d8b699286b042b1b3764736f6c634300081d0033",
  "linkReferences": {},
  "deployedLinkReferences": {},
  "immutableReferences": {},
  "inputSourceName": "project/contracts/evm/test/USDcoin.sol",
  "buildInfoId": "solc-0_8_29-52dcd6e2465514103137809f75f097d7a71d8ad1"
}